{
  "transactions": [
    {
      "hash": "0xeb57bf332e68820ba16bfab00bebff37d6833227f0aed778bcec7ec959974e55",
      "transactionType": "CALL",
      "contractName": null,
      "contractAddress": "0x0dfb5062def114fd7261e4385d8afcf15cf89e9e",
      "function": "mintPet(uint256)",
      "arguments": [
        "1"
      ],
      "transaction": {
        "from": "0xca067e20db2cdef80d1c7130e5b71c42c0305529",
        "to": "0x0dfb5062def114fd7261e4385d8afcf15cf89e9e",
        "gas": "0xbeed5",
        "value": "0x2540be400",
        "input": "0xc05d92c90000000000000000000000000000000000000000000000000000000000000001",
        "nonce": "0x110",
        "chainId": "0x8157"
      },
      "additionalContracts": [],
      "isFixedGasLimit": false
    }
  ],
  "receipts": [
    {
      "status": "0x1",
      "cumulativeGasUsed": "0x8a3a5",
      "logs": [
        {
          "address": "0x0dfb5062def114fd7261e4385d8afcf15cf89e9e",
          "topics": [
            "0xddf252ad1be2c89b69c2b068fc378daa952ba7f163c4a11628f55a4df523b3ef",
            "0x0000000000000000000000000000000000000000000000000000000000000000",
            "0x000000000000000000000000ca067e20db2cdef80d1c7130e5b71c42c0305529",
            "0x0000000000000000000000000000000000000000000000000000000000000001"
          ],
          "data": "0x",
          "blockHash": "0xe09a521c7e5ce5ed0bcb5292875243d60a66766427e070fe12a1e3767b9a6f01",
          "blockNumber": "0x1abd65a",
          "transactionHash": "0xeb57bf332e68820ba16bfab00bebff37d6833227f0aed778bcec7ec959974e55",
          "transactionIndex": "0x1",
          "logIndex": "0x0",
          "removed": false
        },
        {
          "address": "0x0dfb5062def114fd7261e4385d8afcf15cf89e9e",
          "topics": [
            "0xfadbc182e7583a6e874a68d12fc3682701316b65e0b097472e8c71b485671247"
          ],
          "data": "0x",
          "blockHash": "0xe09a521c7e5ce5ed0bcb5292875243d60a66766427e070fe12a1e3767b9a6f01",
          "blockNumber": "0x1abd65a",
          "transactionHash": "0xeb57bf332e68820ba16bfab00bebff37d6833227f0aed778bcec7ec959974e55",
          "transactionIndex": "0x1",
          "logIndex": "0x1",
          "removed": false
        }
      ],
      "logsBloom": "0x00000000000000000000800000000000000000000000000000000000000800000000000000000000010000000000000000000000000000000000000000040000000000000000008000000008000000000000000000040000000000000000000000000000020000000000000000000800002000000000000000000010000000000000000000000001000000000000000000000000000000000000001000000000000000000000000000000000000000000000000000000000000000000000000000000002000000000000000000000000000000000000001000020000000060000000000000000000000000000000000000000000000000000000000000000000",
      "type": "0x2",
      "transactionHash": "0xeb57bf332e68820ba16bfab00bebff37d6833227f0aed778bcec7ec959974e55",
      "transactionIndex": "0x1",
      "blockHash": "0xe09a521c7e5ce5ed0bcb5292875243d60a66766427e070fe12a1e3767b9a6f01",
      "blockNumber": "0x1abd65a",
      "gasUsed": "0x8a3a5",
      "effectiveGasPrice": "0x989680",
      "from": "0xca067e20db2cdef80d1c7130e5b71c42c0305529",
      "to": "0x0dfb5062def114fd7261e4385d8afcf15cf89e9e",
      "contractAddress": null,
      "gasUsedForL1": "0x0",
      "l1BlockNumber": "0x8c7b13"
    }
  ],
  "libraries": [],
  "pending": [],
  "returns": {},
  "timestamp": 1757913580,
  "chain": 33111,
  "commit": "5dd3b71"
}