{
  "transactions": [
    {
      "hash": "0x5e50d5a12b4c6a3bfd3b9dbb244e4e21323cc7939053dd77a34361c7fed8d6eb",
      "transactionType": "CALL",
      "contractName": null,
      "contractAddress": "0x1e0afd078d942deb42f2a72bb4857c6d6a8636f6",
      "function": "mintPet(uint256)",
      "arguments": [
        "1"
      ],
      "transaction": {
        "from": "0xca067e20db2cdef80d1c7130e5b71c42c0305529",
        "to": "0x1e0afd078d942deb42f2a72bb4857c6d6a8636f6",
        "gas": "0xefd88",
        "value": "0x186a0",
        "input": "0xc05d92c90000000000000000000000000000000000000000000000000000000000000001",
        "nonce": "0x11a",
        "chainId": "0x8157"
      },
      "additionalContracts": [],
      "isFixedGasLimit": false
    }
  ],
  "receipts": [
    {
      "status": "0x1",
      "cumulativeGasUsed": "0xada4f",
      "logs": [
        {
          "address": "0x1e0afd078d942deb42f2a72bb4857c6d6a8636f6",
          "topics": [
            "0xddf252ad1be2c89b69c2b068fc378daa952ba7f163c4a11628f55a4df523b3ef",
            "0x0000000000000000000000000000000000000000000000000000000000000000",
            "0x000000000000000000000000ca067e20db2cdef80d1c7130e5b71c42c0305529",
            "0x0000000000000000000000000000000000000000000000000000000000000001"
          ],
          "data": "0x",
          "blockHash": "0x95512610a6caa1c45411949a248ef4ad082072bb17581b5a4031de2ce2e17897",
          "blockNumber": "0x1ad6ac7",
          "transactionHash": "0x5e50d5a12b4c6a3bfd3b9dbb244e4e21323cc7939053dd77a34361c7fed8d6eb",
          "transactionIndex": "0x1",
          "logIndex": "0x0",
          "removed": false
        },
        {
          "address": "0x1e0afd078d942deb42f2a72bb4857c6d6a8636f6",
          "topics": [
            "0xfadbc182e7583a6e874a68d12fc3682701316b65e0b097472e8c71b485671247"
          ],
          "data": "0x",
          "blockHash": "0x95512610a6caa1c45411949a248ef4ad082072bb17581b5a4031de2ce2e17897",
          "blockNumber": "0x1ad6ac7",
          "transactionHash": "0x5e50d5a12b4c6a3bfd3b9dbb244e4e21323cc7939053dd77a34361c7fed8d6eb",
          "transactionIndex": "0x1",
          "logIndex": "0x1",
          "removed": false
        }
      ],
      "logsBloom": "0x00000000000000000000000000000000000000000000000000000000000800000000000000000000000000000000000000000000000000000000000000040000000000000000008000000008000000000000000000040000400000000000000000000000020000000000000000000800002000000000000000000010000000000000400000000000000000000000000000000000000000000000001000000000000000000000000000000000000000000000000000000000000000000000000000000002000000000002000000000000000000000000001000020000000060000000000000000000000000000000000000000000000000000000000000000000",
      "type": "0x2",
      "transactionHash": "0x5e50d5a12b4c6a3bfd3b9dbb244e4e21323cc7939053dd77a34361c7fed8d6eb",
      "transactionIndex": "0x1",
      "blockHash": "0x95512610a6caa1c45411949a248ef4ad082072bb17581b5a4031de2ce2e17897",
      "blockNumber": "0x1ad6ac7",
      "gasUsed": "0xada4f",
      "effectiveGasPrice": "0x989680",
      "from": "0xca067e20db2cdef80d1c7130e5b71c42c0305529",
      "to": "0x1e0afd078d942deb42f2a72bb4857c6d6a8636f6",
      "contractAddress": null,
      "gasUsedForL1": "0x0",
      "l1BlockNumber": "0x8caaa8"
    }
  ],
  "libraries": [],
  "pending": [],
  "returns": {},
  "timestamp": 1758070631,
  "chain": 33111,
  "commit": "5dd3b71"
}