{
  "transactions": [
    {
      "hash": "0x60fd481a88afaf904bf6fcbea34170fa9be42775aadd9ec3cf059d1dce05d5c2",
      "transactionType": "CALL",
      "contractName": null,
      "contractAddress": "0x0dfb5062def114fd7261e4385d8afcf15cf89e9e",
      "function": "setTokenTraits(uint256,uint256[5])",
      "arguments": [
        "1",
        "[0, 1, 19, 28, 33]"
      ],
      "transaction": {
        "from": "0xca067e20db2cdef80d1c7130e5b71c42c0305529",
        "to": "0x0dfb5062def114fd7261e4385d8afcf15cf89e9e",
        "gas": "0x29e79",
        "value": "0x0",
        "input": "0xa1ffda1f0000000000000000000000000000000000000000000000000000000000000001000000000000000000000000000000000000000000000000000000000000000000000000000000000000000000000000000000000000000000000000000000010000000000000000000000000000000000000000000000000000000000000013000000000000000000000000000000000000000000000000000000000000001c0000000000000000000000000000000000000000000000000000000000000021",
        "nonce": "0xeb",
        "chainId": "0x8157"
      },
      "additionalContracts": [],
      "isFixedGasLimit": false
    },
    {
      "hash": "0x8fe256ec99f34b7996480aa3fcaec148ab9bbf915e26684936589a33c061d2cd",
      "transactionType": "CALL",
      "contractName": null,
      "contractAddress": "0x0dfb5062def114fd7261e4385d8afcf15cf89e9e",
      "function": "setTokenTraits(uint256,uint256[5])",
      "arguments": [
        "2",
        "[0, 1, 19, 12, 18]"
      ],
      "transaction": {
        "from": "0xca067e20db2cdef80d1c7130e5b71c42c0305529",
        "to": "0x0dfb5062def114fd7261e4385d8afcf15cf89e9e",
        "gas": "0x29e79",
        "value": "0x0",
        "input": "0xa1ffda1f0000000000000000000000000000000000000000000000000000000000000002000000000000000000000000000000000000000000000000000000000000000000000000000000000000000000000000000000000000000000000000000000010000000000000000000000000000000000000000000000000000000000000013000000000000000000000000000000000000000000000000000000000000000c0000000000000000000000000000000000000000000000000000000000000012",
        "nonce": "0xec",
        "chainId": "0x8157"
      },
      "additionalContracts": [],
      "isFixedGasLimit": false
    },
    {
      "hash": "0x8b05acf661ae4576e385ec2d1c61cb1960a0d23c43d49a8ab4c47b73c7be0bbb",
      "transactionType": "CALL",
      "contractName": null,
      "contractAddress": "0x0dfb5062def114fd7261e4385d8afcf15cf89e9e",
      "function": "setTokenTraits(uint256,uint256[5])",
      "arguments": [
        "3",
        "[2, 3, 5, 20, 8]"
      ],
      "transaction": {
        "from": "0xca067e20db2cdef80d1c7130e5b71c42c0305529",
        "to": "0x0dfb5062def114fd7261e4385d8afcf15cf89e9e",
        "gas": "0x3103a",
        "value": "0x0",
        "input": "0xa1ffda1f000000000000000000000000000000000000000000000000000000000000000300000000000000000000000000000000000000000000000000000000000000020000000000000000000000000000000000000000000000000000000000000003000000000000000000000000000000000000000000000000000000000000000500000000000000000000000000000000000000000000000000000000000000140000000000000000000000000000000000000000000000000000000000000008",
        "nonce": "0xed",
        "chainId": "0x8157"
      },
      "additionalContracts": [],
      "isFixedGasLimit": false
    },
    {
      "hash": "0xc4258ba9c0643088e8b1a521ea2fc4c7401716417d5d786e5bad357612f94d48",
      "transactionType": "CALL",
      "contractName": null,
      "contractAddress": "0x0dfb5062def114fd7261e4385d8afcf15cf89e9e",
      "function": "setTokenTraits(uint256,uint256[5])",
      "arguments": [
        "4",
        "[0, 2, 34, 6, 11]"
      ],
      "transaction": {
        "from": "0xca067e20db2cdef80d1c7130e5b71c42c0305529",
        "to": "0x0dfb5062def114fd7261e4385d8afcf15cf89e9e",
        "gas": "0x29e79",
        "value": "0x0",
        "input": "0xa1ffda1f00000000000000000000000000000000000000000000000000000000000000040000000000000000000000000000000000000000000000000000000000000000000000000000000000000000000000000000000000000000000000000000000200000000000000000000000000000000000000000000000000000000000000220000000000000000000000000000000000000000000000000000000000000006000000000000000000000000000000000000000000000000000000000000000b",
        "nonce": "0xee",
        "chainId": "0x8157"
      },
      "additionalContracts": [],
      "isFixedGasLimit": false
    },
    {
      "hash": "0xb984969f1fdc048534b980d3193bc2ebe97893286f8e346b5aba4101f92d08b6",
      "transactionType": "CALL",
      "contractName": null,
      "contractAddress": "0x0dfb5062def114fd7261e4385d8afcf15cf89e9e",
      "function": "setTokenTraits(uint256,uint256[5])",
      "arguments": [
        "5",
        "[2, 0, 14, 6, 6]"
      ],
      "transaction": {
        "from": "0xca067e20db2cdef80d1c7130e5b71c42c0305529",
        "to": "0x0dfb5062def114fd7261e4385d8afcf15cf89e9e",
        "gas": "0x29e79",
        "value": "0x0",
        "input": "0xa1ffda1f000000000000000000000000000000000000000000000000000000000000000500000000000000000000000000000000000000000000000000000000000000020000000000000000000000000000000000000000000000000000000000000000000000000000000000000000000000000000000000000000000000000000000e00000000000000000000000000000000000000000000000000000000000000060000000000000000000000000000000000000000000000000000000000000006",
        "nonce": "0xef",
        "chainId": "0x8157"
      },
      "additionalContracts": [],
      "isFixedGasLimit": false
    },
    {
      "hash": "0x2b65a230b03928717f936b598ffdb53172376cb68ecb60e006fe4abd1eb2be8b",
      "transactionType": "CALL",
      "contractName": null,
      "contractAddress": "0x0dfb5062def114fd7261e4385d8afcf15cf89e9e",
      "function": "setTokenTraits(uint256,uint256[5])",
      "arguments": [
        "6",
        "[2, 2, 18, 16, 34]"
      ],
      "transaction": {
        "from": "0xca067e20db2cdef80d1c7130e5b71c42c0305529",
        "to": "0x0dfb5062def114fd7261e4385d8afcf15cf89e9e",
        "gas": "0x3103a",
        "value": "0x0",
        "input": "0xa1ffda1f000000000000000000000000000000000000000000000000000000000000000600000000000000000000000000000000000000000000000000000000000000020000000000000000000000000000000000000000000000000000000000000002000000000000000000000000000000000000000000000000000000000000001200000000000000000000000000000000000000000000000000000000000000100000000000000000000000000000000000000000000000000000000000000022",
        "nonce": "0xf0",
        "chainId": "0x8157"
      },
      "additionalContracts": [],
      "isFixedGasLimit": false
    },
    {
      "hash": "0x4b455ba6a0f133029c6c02de4956af6157e20b7a32fe40c7f0cecd4c479dcfe9",
      "transactionType": "CALL",
      "contractName": null,
      "contractAddress": "0x0dfb5062def114fd7261e4385d8afcf15cf89e9e",
      "function": "setTokenTraits(uint256,uint256[5])",
      "arguments": [
        "7",
        "[1, 3, 38, 2, 29]"
      ],
      "transaction": {
        "from": "0xca067e20db2cdef80d1c7130e5b71c42c0305529",
        "to": "0x0dfb5062def114fd7261e4385d8afcf15cf89e9e",
        "gas": "0x3103a",
        "value": "0x0",
        "input": "0xa1ffda1f00000000000000000000000000000000000000000000000000000000000000070000000000000000000000000000000000000000000000000000000000000001000000000000000000000000000000000000000000000000000000000000000300000000000000000000000000000000000000000000000000000000000000260000000000000000000000000000000000000000000000000000000000000002000000000000000000000000000000000000000000000000000000000000001d",
        "nonce": "0xf1",
        "chainId": "0x8157"
      },
      "additionalContracts": [],
      "isFixedGasLimit": false
    },
    {
      "hash": "0xe2dff7fc6def6da6f5e8df86da1b9ed351f4d78eaf949da5ba9eb523f815ce2c",
      "transactionType": "CALL",
      "contractName": null,
      "contractAddress": "0x0dfb5062def114fd7261e4385d8afcf15cf89e9e",
      "function": "setTokenTraits(uint256,uint256[5])",
      "arguments": [
        "8",
        "[0, 1, 17, 33, 28]"
      ],
      "transaction": {
        "from": "0xca067e20db2cdef80d1c7130e5b71c42c0305529",
        "to": "0x0dfb5062def114fd7261e4385d8afcf15cf89e9e",
        "gas": "0x29e79",
        "value": "0x0",
        "input": "0xa1ffda1f00000000000000000000000000000000000000000000000000000000000000080000000000000000000000000000000000000000000000000000000000000000000000000000000000000000000000000000000000000000000000000000000100000000000000000000000000000000000000000000000000000000000000110000000000000000000000000000000000000000000000000000000000000021000000000000000000000000000000000000000000000000000000000000001c",
        "nonce": "0xf2",
        "chainId": "0x8157"
      },
      "additionalContracts": [],
      "isFixedGasLimit": false
    },
    {
      "hash": "0xcac55f98ad70f781537720d30bc4c255e98692faa9e13bcffc8ffe438300395a",
      "transactionType": "CALL",
      "contractName": null,
      "contractAddress": "0x0dfb5062def114fd7261e4385d8afcf15cf89e9e",
      "function": "setTokenTraits(uint256,uint256[5])",
      "arguments": [
        "9",
        "[0, 3, 12, 13, 2]"
      ],
      "transaction": {
        "from": "0xca067e20db2cdef80d1c7130e5b71c42c0305529",
        "to": "0x0dfb5062def114fd7261e4385d8afcf15cf89e9e",
        "gas": "0x29e79",
        "value": "0x0",
        "input": "0xa1ffda1f000000000000000000000000000000000000000000000000000000000000000900000000000000000000000000000000000000000000000000000000000000000000000000000000000000000000000000000000000000000000000000000003000000000000000000000000000000000000000000000000000000000000000c000000000000000000000000000000000000000000000000000000000000000d0000000000000000000000000000000000000000000000000000000000000002",
        "nonce": "0xf3",
        "chainId": "0x8157"
      },
      "additionalContracts": [],
      "isFixedGasLimit": false
    },
    {
      "hash": "0x53add4f1c8c546c8749109cdd217bc618a529ddf974baa99852590ac583f83b1",
      "transactionType": "CALL",
      "contractName": null,
      "contractAddress": "0x0dfb5062def114fd7261e4385d8afcf15cf89e9e",
      "function": "setTokenTraits(uint256,uint256[5])",
      "arguments": [
        "10",
        "[0, 2, 5, 5, 9]"
      ],
      "transaction": {
        "from": "0xca067e20db2cdef80d1c7130e5b71c42c0305529",
        "to": "0x0dfb5062def114fd7261e4385d8afcf15cf89e9e",
        "gas": "0x29e79",
        "value": "0x0",
        "input": "0xa1ffda1f000000000000000000000000000000000000000000000000000000000000000a00000000000000000000000000000000000000000000000000000000000000000000000000000000000000000000000000000000000000000000000000000002000000000000000000000000000000000000000000000000000000000000000500000000000000000000000000000000000000000000000000000000000000050000000000000000000000000000000000000000000000000000000000000009",
        "nonce": "0xf4",
        "chainId": "0x8157"
      },
      "additionalContracts": [],
      "isFixedGasLimit": false
    },
    {
      "hash": "0xfdc76f4027070cdc8701e0bc7af681d97af43b4084b61b3b134d1c59b28b59b1",
      "transactionType": "CALL",
      "contractName": null,
      "contractAddress": "0x0dfb5062def114fd7261e4385d8afcf15cf89e9e",
      "function": "setTokenTraits(uint256,uint256[5])",
      "arguments": [
        "11",
        "[3, 2, 26, 13, 19]"
      ],
      "transaction": {
        "from": "0xca067e20db2cdef80d1c7130e5b71c42c0305529",
        "to": "0x0dfb5062def114fd7261e4385d8afcf15cf89e9e",
        "gas": "0x3103a",
        "value": "0x0",
        "input": "0xa1ffda1f000000000000000000000000000000000000000000000000000000000000000b00000000000000000000000000000000000000000000000000000000000000030000000000000000000000000000000000000000000000000000000000000002000000000000000000000000000000000000000000000000000000000000001a000000000000000000000000000000000000000000000000000000000000000d0000000000000000000000000000000000000000000000000000000000000013",
        "nonce": "0xf5",
        "chainId": "0x8157"
      },
      "additionalContracts": [],
      "isFixedGasLimit": false
    },
    {
      "hash": "0xde5d0efd4b5fd83a5c477efd7badf29f06954f377535f147ebc9b20b45b8619f",
      "transactionType": "CALL",
      "contractName": null,
      "contractAddress": "0x0dfb5062def114fd7261e4385d8afcf15cf89e9e",
      "function": "setTokenTraits(uint256,uint256[5])",
      "arguments": [
        "12",
        "[2, 3, 38, 15, 14]"
      ],
      "transaction": {
        "from": "0xca067e20db2cdef80d1c7130e5b71c42c0305529",
        "to": "0x0dfb5062def114fd7261e4385d8afcf15cf89e9e",
        "gas": "0x3103a",
        "value": "0x0",
        "input": "0xa1ffda1f000000000000000000000000000000000000000000000000000000000000000c000000000000000000000000000000000000000000000000000000000000000200000000000000000000000000000000000000000000000000000000000000030000000000000000000000000000000000000000000000000000000000000026000000000000000000000000000000000000000000000000000000000000000f000000000000000000000000000000000000000000000000000000000000000e",
        "nonce": "0xf6",
        "chainId": "0x8157"
      },
      "additionalContracts": [],
      "isFixedGasLimit": false
    },
    {
      "hash": "0x24efd67a55ba4b6b08bfdd090605e5406954d7054d0584275493b1f8372806d8",
      "transactionType": "CALL",
      "contractName": null,
      "contractAddress": "0x0dfb5062def114fd7261e4385d8afcf15cf89e9e",
      "function": "setTokenTraits(uint256,uint256[5])",
      "arguments": [
        "13",
        "[1, 2, 24, 13, 26]"
      ],
      "transaction": {
        "from": "0xca067e20db2cdef80d1c7130e5b71c42c0305529",
        "to": "0x0dfb5062def114fd7261e4385d8afcf15cf89e9e",
        "gas": "0x3103a",
        "value": "0x0",
        "input": "0xa1ffda1f000000000000000000000000000000000000000000000000000000000000000d000000000000000000000000000000000000000000000000000000000000000100000000000000000000000000000000000000000000000000000000000000020000000000000000000000000000000000000000000000000000000000000018000000000000000000000000000000000000000000000000000000000000000d000000000000000000000000000000000000000000000000000000000000001a",
        "nonce": "0xf7",
        "chainId": "0x8157"
      },
      "additionalContracts": [],
      "isFixedGasLimit": false
    },
    {
      "hash": "0x75499b6c18f905d09a2c5f8e89710582dd93601310cd765128f3a4d3790ecabb",
      "transactionType": "CALL",
      "contractName": null,
      "contractAddress": "0x0dfb5062def114fd7261e4385d8afcf15cf89e9e",
      "function": "setTokenTraits(uint256,uint256[5])",
      "arguments": [
        "14",
        "[0, 3, 16, 17, 34]"
      ],
      "transaction": {
        "from": "0xca067e20db2cdef80d1c7130e5b71c42c0305529",
        "to": "0x0dfb5062def114fd7261e4385d8afcf15cf89e9e",
        "gas": "0x29e79",
        "value": "0x0",
        "input": "0xa1ffda1f000000000000000000000000000000000000000000000000000000000000000e00000000000000000000000000000000000000000000000000000000000000000000000000000000000000000000000000000000000000000000000000000003000000000000000000000000000000000000000000000000000000000000001000000000000000000000000000000000000000000000000000000000000000110000000000000000000000000000000000000000000000000000000000000022",
        "nonce": "0xf8",
        "chainId": "0x8157"
      },
      "additionalContracts": [],
      "isFixedGasLimit": false
    },
    {
      "hash": "0x35f4c7ec065ce93eb07de712e6909d5ae9954b38366ae04673ddc16494dc57aa",
      "transactionType": "CALL",
      "contractName": null,
      "contractAddress": "0x0dfb5062def114fd7261e4385d8afcf15cf89e9e",
      "function": "setTokenTraits(uint256,uint256[5])",
      "arguments": [
        "15",
        "[1, 2, 18, 29, 10]"
      ],
      "transaction": {
        "from": "0xca067e20db2cdef80d1c7130e5b71c42c0305529",
        "to": "0x0dfb5062def114fd7261e4385d8afcf15cf89e9e",
        "gas": "0x3103a",
        "value": "0x0",
        "input": "0xa1ffda1f000000000000000000000000000000000000000000000000000000000000000f000000000000000000000000000000000000000000000000000000000000000100000000000000000000000000000000000000000000000000000000000000020000000000000000000000000000000000000000000000000000000000000012000000000000000000000000000000000000000000000000000000000000001d000000000000000000000000000000000000000000000000000000000000000a",
        "nonce": "0xf9",
        "chainId": "0x8157"
      },
      "additionalContracts": [],
      "isFixedGasLimit": false
    },
    {
      "hash": "0xe08157656fb8d2fb1a57ac8054507ec90c2d97df98e07f1f8f1ddc490e0d67f0",
      "transactionType": "CALL",
      "contractName": null,
      "contractAddress": "0x0dfb5062def114fd7261e4385d8afcf15cf89e9e",
      "function": "setTokenTraits(uint256,uint256[5])",
      "arguments": [
        "16",
        "[0, 2, 33, 10, 14]"
      ],
      "transaction": {
        "from": "0xca067e20db2cdef80d1c7130e5b71c42c0305529",
        "to": "0x0dfb5062def114fd7261e4385d8afcf15cf89e9e",
        "gas": "0x29e79",
        "value": "0x0",
        "input": "0xa1ffda1f0000000000000000000000000000000000000000000000000000000000000010000000000000000000000000000000000000000000000000000000000000000000000000000000000000000000000000000000000000000000000000000000020000000000000000000000000000000000000000000000000000000000000021000000000000000000000000000000000000000000000000000000000000000a000000000000000000000000000000000000000000000000000000000000000e",
        "nonce": "0xfa",
        "chainId": "0x8157"
      },
      "additionalContracts": [],
      "isFixedGasLimit": false
    },
    {
      "hash": "0xe68ee666504224c770aa6118bdc647213a1275d918f8b596c6248617002f489d",
      "transactionType": "CALL",
      "contractName": null,
      "contractAddress": "0x0dfb5062def114fd7261e4385d8afcf15cf89e9e",
      "function": "setTokenTraits(uint256,uint256[5])",
      "arguments": [
        "17",
        "[3, 2, 19, 22, 26]"
      ],
      "transaction": {
        "from": "0xca067e20db2cdef80d1c7130e5b71c42c0305529",
        "to": "0x0dfb5062def114fd7261e4385d8afcf15cf89e9e",
        "gas": "0x3103a",
        "value": "0x0",
        "input": "0xa1ffda1f00000000000000000000000000000000000000000000000000000000000000110000000000000000000000000000000000000000000000000000000000000003000000000000000000000000000000000000000000000000000000000000000200000000000000000000000000000000000000000000000000000000000000130000000000000000000000000000000000000000000000000000000000000016000000000000000000000000000000000000000000000000000000000000001a",
        "nonce": "0xfb",
        "chainId": "0x8157"
      },
      "additionalContracts": [],
      "isFixedGasLimit": false
    },
    {
      "hash": "0x5d6a7dedfda6f7cbfdfeb49b9ac05fafcd29711c0f5c1b41263df8057597b9c5",
      "transactionType": "CALL",
      "contractName": null,
      "contractAddress": "0x0dfb5062def114fd7261e4385d8afcf15cf89e9e",
      "function": "setTokenTraits(uint256,uint256[5])",
      "arguments": [
        "18",
        "[0, 1, 3, 13, 7]"
      ],
      "transaction": {
        "from": "0xca067e20db2cdef80d1c7130e5b71c42c0305529",
        "to": "0x0dfb5062def114fd7261e4385d8afcf15cf89e9e",
        "gas": "0x29e79",
        "value": "0x0",
        "input": "0xa1ffda1f0000000000000000000000000000000000000000000000000000000000000012000000000000000000000000000000000000000000000000000000000000000000000000000000000000000000000000000000000000000000000000000000010000000000000000000000000000000000000000000000000000000000000003000000000000000000000000000000000000000000000000000000000000000d0000000000000000000000000000000000000000000000000000000000000007",
        "nonce": "0xfc",
        "chainId": "0x8157"
      },
      "additionalContracts": [],
      "isFixedGasLimit": false
    },
    {
      "hash": "0x50bab13e96c2a9daeef334661b887eae8b9f9278ae41edc8b1730001ee0f8d8b",
      "transactionType": "CALL",
      "contractName": null,
      "contractAddress": "0x0dfb5062def114fd7261e4385d8afcf15cf89e9e",
      "function": "setTokenTraits(uint256,uint256[5])",
      "arguments": [
        "19",
        "[1, 2, 19, 35, 33]"
      ],
      "transaction": {
        "from": "0xca067e20db2cdef80d1c7130e5b71c42c0305529",
        "to": "0x0dfb5062def114fd7261e4385d8afcf15cf89e9e",
        "gas": "0x3103a",
        "value": "0x0",
        "input": "0xa1ffda1f000000000000000000000000000000000000000000000000000000000000001300000000000000000000000000000000000000000000000000000000000000010000000000000000000000000000000000000000000000000000000000000002000000000000000000000000000000000000000000000000000000000000001300000000000000000000000000000000000000000000000000000000000000230000000000000000000000000000000000000000000000000000000000000021",
        "nonce": "0xfd",
        "chainId": "0x8157"
      },
      "additionalContracts": [],
      "isFixedGasLimit": false
    },
    {
      "hash": "0xda045b34bc8002292239e5b07b6e6cbf1c4b596f4e16253f250bc119468dc731",
      "transactionType": "CALL",
      "contractName": null,
      "contractAddress": "0x0dfb5062def114fd7261e4385d8afcf15cf89e9e",
      "function": "setTokenTraits(uint256,uint256[5])",
      "arguments": [
        "20",
        "[0, 3, 17, 0, 20]"
      ],
      "transaction": {
        "from": "0xca067e20db2cdef80d1c7130e5b71c42c0305529",
        "to": "0x0dfb5062def114fd7261e4385d8afcf15cf89e9e",
        "gas": "0x22cb8",
        "value": "0x0",
        "input": "0xa1ffda1f000000000000000000000000000000000000000000000000000000000000001400000000000000000000000000000000000000000000000000000000000000000000000000000000000000000000000000000000000000000000000000000003000000000000000000000000000000000000000000000000000000000000001100000000000000000000000000000000000000000000000000000000000000000000000000000000000000000000000000000000000000000000000000000014",
        "nonce": "0xfe",
        "chainId": "0x8157"
      },
      "additionalContracts": [],
      "isFixedGasLimit": false
    },
    {
      "hash": "0xa8fbb89213a7afbaf4dc464fc0abfefdcdfc998d1b87ba8b2fbad9a372e2ada4",
      "transactionType": "CALL",
      "contractName": null,
      "contractAddress": "0x0dfb5062def114fd7261e4385d8afcf15cf89e9e",
      "function": "setTokenTraits(uint256,uint256[5])",
      "arguments": [
        "21",
        "[3, 2, 20, 5, 12]"
      ],
      "transaction": {
        "from": "0xca067e20db2cdef80d1c7130e5b71c42c0305529",
        "to": "0x0dfb5062def114fd7261e4385d8afcf15cf89e9e",
        "gas": "0x3103a",
        "value": "0x0",
        "input": "0xa1ffda1f00000000000000000000000000000000000000000000000000000000000000150000000000000000000000000000000000000000000000000000000000000003000000000000000000000000000000000000000000000000000000000000000200000000000000000000000000000000000000000000000000000000000000140000000000000000000000000000000000000000000000000000000000000005000000000000000000000000000000000000000000000000000000000000000c",
        "nonce": "0xff",
        "chainId": "0x8157"
      },
      "additionalContracts": [],
      "isFixedGasLimit": false
    },
    {
      "hash": "0x7c03ec23177aa147f56d2154e965f83623050f895fb1b154dd4ac49e75cc7b2a",
      "transactionType": "CALL",
      "contractName": null,
      "contractAddress": "0x0dfb5062def114fd7261e4385d8afcf15cf89e9e",
      "function": "setTokenTraits(uint256,uint256[5])",
      "arguments": [
        "22",
        "[3, 3, 27, 19, 15]"
      ],
      "transaction": {
        "from": "0xca067e20db2cdef80d1c7130e5b71c42c0305529",
        "to": "0x0dfb5062def114fd7261e4385d8afcf15cf89e9e",
        "gas": "0x3103a",
        "value": "0x0",
        "input": "0xa1ffda1f000000000000000000000000000000000000000000000000000000000000001600000000000000000000000000000000000000000000000000000000000000030000000000000000000000000000000000000000000000000000000000000003000000000000000000000000000000000000000000000000000000000000001b0000000000000000000000000000000000000000000000000000000000000013000000000000000000000000000000000000000000000000000000000000000f",
        "nonce": "0x100",
        "chainId": "0x8157"
      },
      "additionalContracts": [],
      "isFixedGasLimit": false
    },
    {
      "hash": "0x894bacf418723910bc2634bbfdde9f4a9981929008823b0463b9606570e90437",
      "transactionType": "CALL",
      "contractName": null,
      "contractAddress": "0x0dfb5062def114fd7261e4385d8afcf15cf89e9e",
      "function": "setTokenTraits(uint256,uint256[5])",
      "arguments": [
        "23",
        "[1, 0, 25, 30, 14]"
      ],
      "transaction": {
        "from": "0xca067e20db2cdef80d1c7130e5b71c42c0305529",
        "to": "0x0dfb5062def114fd7261e4385d8afcf15cf89e9e",
        "gas": "0x29e79",
        "value": "0x0",
        "input": "0xa1ffda1f0000000000000000000000000000000000000000000000000000000000000017000000000000000000000000000000000000000000000000000000000000000100000000000000000000000000000000000000000000000000000000000000000000000000000000000000000000000000000000000000000000000000000019000000000000000000000000000000000000000000000000000000000000001e000000000000000000000000000000000000000000000000000000000000000e",
        "nonce": "0x101",
        "chainId": "0x8157"
      },
      "additionalContracts": [],
      "isFixedGasLimit": false
    },
    {
      "hash": "0xf2fe1032bda64bc36d90e71272e08bbc1ee6fb22eba56429db68a28d652987bd",
      "transactionType": "CALL",
      "contractName": null,
      "contractAddress": "0x0dfb5062def114fd7261e4385d8afcf15cf89e9e",
      "function": "setTokenTraits(uint256,uint256[5])",
      "arguments": [
        "24",
        "[0, 3, 32, 10, 0]"
      ],
      "transaction": {
        "from": "0xca067e20db2cdef80d1c7130e5b71c42c0305529",
        "to": "0x0dfb5062def114fd7261e4385d8afcf15cf89e9e",
        "gas": "0x22cb8",
        "value": "0x0",
        "input": "0xa1ffda1f0000000000000000000000000000000000000000000000000000000000000018000000000000000000000000000000000000000000000000000000000000000000000000000000000000000000000000000000000000000000000000000000030000000000000000000000000000000000000000000000000000000000000020000000000000000000000000000000000000000000000000000000000000000a0000000000000000000000000000000000000000000000000000000000000000",
        "nonce": "0x102",
        "chainId": "0x8157"
      },
      "additionalContracts": [],
      "isFixedGasLimit": false
    },
    {
      "hash": "0x425ab16427216a59fe6343a93fd48f923eac022ddc25e9597237cdbfc3e36c9c",
      "transactionType": "CALL",
      "contractName": null,
      "contractAddress": "0x0dfb5062def114fd7261e4385d8afcf15cf89e9e",
      "function": "setTokenTraits(uint256,uint256[5])",
      "arguments": [
        "25",
        "[0, 2, 27, 34, 29]"
      ],
      "transaction": {
        "from": "0xca067e20db2cdef80d1c7130e5b71c42c0305529",
        "to": "0x0dfb5062def114fd7261e4385d8afcf15cf89e9e",
        "gas": "0x29e79",
        "value": "0x0",
        "input": "0xa1ffda1f000000000000000000000000000000000000000000000000000000000000001900000000000000000000000000000000000000000000000000000000000000000000000000000000000000000000000000000000000000000000000000000002000000000000000000000000000000000000000000000000000000000000001b0000000000000000000000000000000000000000000000000000000000000022000000000000000000000000000000000000000000000000000000000000001d",
        "nonce": "0x103",
        "chainId": "0x8157"
      },
      "additionalContracts": [],
      "isFixedGasLimit": false
    },
    {
      "hash": null,
      "transactionType": "CALL",
      "contractName": null,
      "contractAddress": "0x0dfb5062def114fd7261e4385d8afcf15cf89e9e",
      "function": "setTokenTraits(uint256,uint256[5])",
      "arguments": [
        "26",
        "[0, 3, 9, 23, 10]"
      ],
      "transaction": {
        "from": "0xca067e20db2cdef80d1c7130e5b71c42c0305529",
        "to": "0x0dfb5062def114fd7261e4385d8afcf15cf89e9e",
        "gas": "0x29e79",
        "value": "0x0",
        "input": "0xa1ffda1f000000000000000000000000000000000000000000000000000000000000001a0000000000000000000000000000000000000000000000000000000000000000000000000000000000000000000000000000000000000000000000000000000300000000000000000000000000000000000000000000000000000000000000090000000000000000000000000000000000000000000000000000000000000017000000000000000000000000000000000000000000000000000000000000000a",
        "nonce": "0x104",
        "chainId": "0x8157"
      },
      "additionalContracts": [],
      "isFixedGasLimit": false
    },
    {
      "hash": null,
      "transactionType": "CALL",
      "contractName": null,
      "contractAddress": "0x0dfb5062def114fd7261e4385d8afcf15cf89e9e",
      "function": "setTokenTraits(uint256,uint256[5])",
      "arguments": [
        "27",
        "[2, 1, 17, 24, 10]"
      ],
      "transaction": {
        "from": "0xca067e20db2cdef80d1c7130e5b71c42c0305529",
        "to": "0x0dfb5062def114fd7261e4385d8afcf15cf89e9e",
        "gas": "0x3103a",
        "value": "0x0",
        "input": "0xa1ffda1f000000000000000000000000000000000000000000000000000000000000001b0000000000000000000000000000000000000000000000000000000000000002000000000000000000000000000000000000000000000000000000000000000100000000000000000000000000000000000000000000000000000000000000110000000000000000000000000000000000000000000000000000000000000018000000000000000000000000000000000000000000000000000000000000000a",
        "nonce": "0x105",
        "chainId": "0x8157"
      },
      "additionalContracts": [],
      "isFixedGasLimit": false
    },
    {
      "hash": null,
      "transactionType": "CALL",
      "contractName": null,
      "contractAddress": "0x0dfb5062def114fd7261e4385d8afcf15cf89e9e",
      "function": "setTokenTraits(uint256,uint256[5])",
      "arguments": [
        "28",
        "[3, 0, 31, 33, 8]"
      ],
      "transaction": {
        "from": "0xca067e20db2cdef80d1c7130e5b71c42c0305529",
        "to": "0x0dfb5062def114fd7261e4385d8afcf15cf89e9e",
        "gas": "0x29e79",
        "value": "0x0",
        "input": "0xa1ffda1f000000000000000000000000000000000000000000000000000000000000001c00000000000000000000000000000000000000000000000000000000000000030000000000000000000000000000000000000000000000000000000000000000000000000000000000000000000000000000000000000000000000000000001f00000000000000000000000000000000000000000000000000000000000000210000000000000000000000000000000000000000000000000000000000000008",
        "nonce": "0x106",
        "chainId": "0x8157"
      },
      "additionalContracts": [],
      "isFixedGasLimit": false
    },
    {
      "hash": null,
      "transactionType": "CALL",
      "contractName": null,
      "contractAddress": "0x0dfb5062def114fd7261e4385d8afcf15cf89e9e",
      "function": "setTokenTraits(uint256,uint256[5])",
      "arguments": [
        "29",
        "[3, 1, 10, 20, 7]"
      ],
      "transaction": {
        "from": "0xca067e20db2cdef80d1c7130e5b71c42c0305529",
        "to": "0x0dfb5062def114fd7261e4385d8afcf15cf89e9e",
        "gas": "0x3103a",
        "value": "0x0",
        "input": "0xa1ffda1f000000000000000000000000000000000000000000000000000000000000001d00000000000000000000000000000000000000000000000000000000000000030000000000000000000000000000000000000000000000000000000000000001000000000000000000000000000000000000000000000000000000000000000a00000000000000000000000000000000000000000000000000000000000000140000000000000000000000000000000000000000000000000000000000000007",
        "nonce": "0x107",
        "chainId": "0x8157"
      },
      "additionalContracts": [],
      "isFixedGasLimit": false
    },
    {
      "hash": null,
      "transactionType": "CALL",
      "contractName": null,
      "contractAddress": "0x0dfb5062def114fd7261e4385d8afcf15cf89e9e",
      "function": "setTokenTraits(uint256,uint256[5])",
      "arguments": [
        "30",
        "[1, 1, 0, 35, 1]"
      ],
      "transaction": {
        "from": "0xca067e20db2cdef80d1c7130e5b71c42c0305529",
        "to": "0x0dfb5062def114fd7261e4385d8afcf15cf89e9e",
        "gas": "0x29e79",
        "value": "0x0",
        "input": "0xa1ffda1f000000000000000000000000000000000000000000000000000000000000001e00000000000000000000000000000000000000000000000000000000000000010000000000000000000000000000000000000000000000000000000000000001000000000000000000000000000000000000000000000000000000000000000000000000000000000000000000000000000000000000000000000000000000230000000000000000000000000000000000000000000000000000000000000001",
        "nonce": "0x108",
        "chainId": "0x8157"
      },
      "additionalContracts": [],
      "isFixedGasLimit": false
    },
    {
      "hash": null,
      "transactionType": "CALL",
      "contractName": null,
      "contractAddress": "0x0dfb5062def114fd7261e4385d8afcf15cf89e9e",
      "function": "setTokenTraits(uint256,uint256[5])",
      "arguments": [
        "31",
        "[1, 3, 10, 31, 18]"
      ],
      "transaction": {
        "from": "0xca067e20db2cdef80d1c7130e5b71c42c0305529",
        "to": "0x0dfb5062def114fd7261e4385d8afcf15cf89e9e",
        "gas": "0x3103a",
        "value": "0x0",
        "input": "0xa1ffda1f000000000000000000000000000000000000000000000000000000000000001f00000000000000000000000000000000000000000000000000000000000000010000000000000000000000000000000000000000000000000000000000000003000000000000000000000000000000000000000000000000000000000000000a000000000000000000000000000000000000000000000000000000000000001f0000000000000000000000000000000000000000000000000000000000000012",
        "nonce": "0x109",
        "chainId": "0x8157"
      },
      "additionalContracts": [],
      "isFixedGasLimit": false
    },
    {
      "hash": null,
      "transactionType": "CALL",
      "contractName": null,
      "contractAddress": "0x0dfb5062def114fd7261e4385d8afcf15cf89e9e",
      "function": "setTokenTraits(uint256,uint256[5])",
      "arguments": [
        "32",
        "[2, 0, 34, 20, 9]"
      ],
      "transaction": {
        "from": "0xca067e20db2cdef80d1c7130e5b71c42c0305529",
        "to": "0x0dfb5062def114fd7261e4385d8afcf15cf89e9e",
        "gas": "0x29e79",
        "value": "0x0",
        "input": "0xa1ffda1f000000000000000000000000000000000000000000000000000000000000002000000000000000000000000000000000000000000000000000000000000000020000000000000000000000000000000000000000000000000000000000000000000000000000000000000000000000000000000000000000000000000000002200000000000000000000000000000000000000000000000000000000000000140000000000000000000000000000000000000000000000000000000000000009",
        "nonce": "0x10a",
        "chainId": "0x8157"
      },
      "additionalContracts": [],
      "isFixedGasLimit": false
    },
    {
      "hash": null,
      "transactionType": "CALL",
      "contractName": null,
      "contractAddress": "0x0dfb5062def114fd7261e4385d8afcf15cf89e9e",
      "function": "setTokenTraits(uint256,uint256[5])",
      "arguments": [
        "33",
        "[0, 2, 38, 16, 9]"
      ],
      "transaction": {
        "from": "0xca067e20db2cdef80d1c7130e5b71c42c0305529",
        "to": "0x0dfb5062def114fd7261e4385d8afcf15cf89e9e",
        "gas": "0x29e79",
        "value": "0x0",
        "input": "0xa1ffda1f000000000000000000000000000000000000000000000000000000000000002100000000000000000000000000000000000000000000000000000000000000000000000000000000000000000000000000000000000000000000000000000002000000000000000000000000000000000000000000000000000000000000002600000000000000000000000000000000000000000000000000000000000000100000000000000000000000000000000000000000000000000000000000000009",
        "nonce": "0x10b",
        "chainId": "0x8157"
      },
      "additionalContracts": [],
      "isFixedGasLimit": false
    },
    {
      "hash": null,
      "transactionType": "CALL",
      "contractName": null,
      "contractAddress": "0x0dfb5062def114fd7261e4385d8afcf15cf89e9e",
      "function": "setTokenTraits(uint256,uint256[5])",
      "arguments": [
        "34",
        "[0, 3, 15, 6, 3]"
      ],
      "transaction": {
        "from": "0xca067e20db2cdef80d1c7130e5b71c42c0305529",
        "to": "0x0dfb5062def114fd7261e4385d8afcf15cf89e9e",
        "gas": "0x29e79",
        "value": "0x0",
        "input": "0xa1ffda1f000000000000000000000000000000000000000000000000000000000000002200000000000000000000000000000000000000000000000000000000000000000000000000000000000000000000000000000000000000000000000000000003000000000000000000000000000000000000000000000000000000000000000f00000000000000000000000000000000000000000000000000000000000000060000000000000000000000000000000000000000000000000000000000000003",
        "nonce": "0x10c",
        "chainId": "0x8157"
      },
      "additionalContracts": [],
      "isFixedGasLimit": false
    },
    {
      "hash": null,
      "transactionType": "CALL",
      "contractName": null,
      "contractAddress": "0x0dfb5062def114fd7261e4385d8afcf15cf89e9e",
      "function": "setTokenTraits(uint256,uint256[5])",
      "arguments": [
        "35",
        "[1, 2, 23, 23, 15]"
      ],
      "transaction": {
        "from": "0xca067e20db2cdef80d1c7130e5b71c42c0305529",
        "to": "0x0dfb5062def114fd7261e4385d8afcf15cf89e9e",
        "gas": "0x3103a",
        "value": "0x0",
        "input": "0xa1ffda1f00000000000000000000000000000000000000000000000000000000000000230000000000000000000000000000000000000000000000000000000000000001000000000000000000000000000000000000000000000000000000000000000200000000000000000000000000000000000000000000000000000000000000170000000000000000000000000000000000000000000000000000000000000017000000000000000000000000000000000000000000000000000000000000000f",
        "nonce": "0x10d",
        "chainId": "0x8157"
      },
      "additionalContracts": [],
      "isFixedGasLimit": false
    },
    {
      "hash": null,
      "transactionType": "CALL",
      "contractName": null,
      "contractAddress": "0x0dfb5062def114fd7261e4385d8afcf15cf89e9e",
      "function": "setTokenTraits(uint256,uint256[5])",
      "arguments": [
        "36",
        "[0, 1, 6, 22, 17]"
      ],
      "transaction": {
        "from": "0xca067e20db2cdef80d1c7130e5b71c42c0305529",
        "to": "0x0dfb5062def114fd7261e4385d8afcf15cf89e9e",
        "gas": "0x29e79",
        "value": "0x0",
        "input": "0xa1ffda1f000000000000000000000000000000000000000000000000000000000000002400000000000000000000000000000000000000000000000000000000000000000000000000000000000000000000000000000000000000000000000000000001000000000000000000000000000000000000000000000000000000000000000600000000000000000000000000000000000000000000000000000000000000160000000000000000000000000000000000000000000000000000000000000011",
        "nonce": "0x10e",
        "chainId": "0x8157"
      },
      "additionalContracts": [],
      "isFixedGasLimit": false
    },
    {
      "hash": null,
      "transactionType": "CALL",
      "contractName": null,
      "contractAddress": "0x0dfb5062def114fd7261e4385d8afcf15cf89e9e",
      "function": "setTokenTraits(uint256,uint256[5])",
      "arguments": [
        "37",
        "[2, 2, 29, 28, 1]"
      ],
      "transaction": {
        "from": "0xca067e20db2cdef80d1c7130e5b71c42c0305529",
        "to": "0x0dfb5062def114fd7261e4385d8afcf15cf89e9e",
        "gas": "0x3103a",
        "value": "0x0",
        "input": "0xa1ffda1f000000000000000000000000000000000000000000000000000000000000002500000000000000000000000000000000000000000000000000000000000000020000000000000000000000000000000000000000000000000000000000000002000000000000000000000000000000000000000000000000000000000000001d000000000000000000000000000000000000000000000000000000000000001c0000000000000000000000000000000000000000000000000000000000000001",
        "nonce": "0x10f",
        "chainId": "0x8157"
      },
      "additionalContracts": [],
      "isFixedGasLimit": false
    },
    {
      "hash": null,
      "transactionType": "CALL",
      "contractName": null,
      "contractAddress": "0x0dfb5062def114fd7261e4385d8afcf15cf89e9e",
      "function": "setTokenTraits(uint256,uint256[5])",
      "arguments": [
        "38",
        "[1, 2, 4, 31, 1]"
      ],
      "transaction": {
        "from": "0xca067e20db2cdef80d1c7130e5b71c42c0305529",
        "to": "0x0dfb5062def114fd7261e4385d8afcf15cf89e9e",
        "gas": "0x3103a",
        "value": "0x0",
        "input": "0xa1ffda1f0000000000000000000000000000000000000000000000000000000000000026000000000000000000000000000000000000000000000000000000000000000100000000000000000000000000000000000000000000000000000000000000020000000000000000000000000000000000000000000000000000000000000004000000000000000000000000000000000000000000000000000000000000001f0000000000000000000000000000000000000000000000000000000000000001",
        "nonce": "0x110",
        "chainId": "0x8157"
      },
      "additionalContracts": [],
      "isFixedGasLimit": false
    },
    {
      "hash": null,
      "transactionType": "CALL",
      "contractName": null,
      "contractAddress": "0x0dfb5062def114fd7261e4385d8afcf15cf89e9e",
      "function": "setTokenTraits(uint256,uint256[5])",
      "arguments": [
        "39",
        "[0, 1, 1, 11, 10]"
      ],
      "transaction": {
        "from": "0xca067e20db2cdef80d1c7130e5b71c42c0305529",
        "to": "0x0dfb5062def114fd7261e4385d8afcf15cf89e9e",
        "gas": "0x29e79",
        "value": "0x0",
        "input": "0xa1ffda1f0000000000000000000000000000000000000000000000000000000000000027000000000000000000000000000000000000000000000000000000000000000000000000000000000000000000000000000000000000000000000000000000010000000000000000000000000000000000000000000000000000000000000001000000000000000000000000000000000000000000000000000000000000000b000000000000000000000000000000000000000000000000000000000000000a",
        "nonce": "0x111",
        "chainId": "0x8157"
      },
      "additionalContracts": [],
      "isFixedGasLimit": false
    },
    {
      "hash": null,
      "transactionType": "CALL",
      "contractName": null,
      "contractAddress": "0x0dfb5062def114fd7261e4385d8afcf15cf89e9e",
      "function": "setTokenTraits(uint256,uint256[5])",
      "arguments": [
        "40",
        "[0, 2, 35, 13, 4]"
      ],
      "transaction": {
        "from": "0xca067e20db2cdef80d1c7130e5b71c42c0305529",
        "to": "0x0dfb5062def114fd7261e4385d8afcf15cf89e9e",
        "gas": "0x29e79",
        "value": "0x0",
        "input": "0xa1ffda1f0000000000000000000000000000000000000000000000000000000000000028000000000000000000000000000000000000000000000000000000000000000000000000000000000000000000000000000000000000000000000000000000020000000000000000000000000000000000000000000000000000000000000023000000000000000000000000000000000000000000000000000000000000000d0000000000000000000000000000000000000000000000000000000000000004",
        "nonce": "0x112",
        "chainId": "0x8157"
      },
      "additionalContracts": [],
      "isFixedGasLimit": false
    },
    {
      "hash": null,
      "transactionType": "CALL",
      "contractName": null,
      "contractAddress": "0x0dfb5062def114fd7261e4385d8afcf15cf89e9e",
      "function": "setTokenTraits(uint256,uint256[5])",
      "arguments": [
        "41",
        "[1, 0, 14, 17, 8]"
      ],
      "transaction": {
        "from": "0xca067e20db2cdef80d1c7130e5b71c42c0305529",
        "to": "0x0dfb5062def114fd7261e4385d8afcf15cf89e9e",
        "gas": "0x29e79",
        "value": "0x0",
        "input": "0xa1ffda1f000000000000000000000000000000000000000000000000000000000000002900000000000000000000000000000000000000000000000000000000000000010000000000000000000000000000000000000000000000000000000000000000000000000000000000000000000000000000000000000000000000000000000e00000000000000000000000000000000000000000000000000000000000000110000000000000000000000000000000000000000000000000000000000000008",
        "nonce": "0x113",
        "chainId": "0x8157"
      },
      "additionalContracts": [],
      "isFixedGasLimit": false
    },
    {
      "hash": null,
      "transactionType": "CALL",
      "contractName": null,
      "contractAddress": "0x0dfb5062def114fd7261e4385d8afcf15cf89e9e",
      "function": "setTokenTraits(uint256,uint256[5])",
      "arguments": [
        "42",
        "[1, 3, 22, 13, 1]"
      ],
      "transaction": {
        "from": "0xca067e20db2cdef80d1c7130e5b71c42c0305529",
        "to": "0x0dfb5062def114fd7261e4385d8afcf15cf89e9e",
        "gas": "0x3103a",
        "value": "0x0",
        "input": "0xa1ffda1f000000000000000000000000000000000000000000000000000000000000002a000000000000000000000000000000000000000000000000000000000000000100000000000000000000000000000000000000000000000000000000000000030000000000000000000000000000000000000000000000000000000000000016000000000000000000000000000000000000000000000000000000000000000d0000000000000000000000000000000000000000000000000000000000000001",
        "nonce": "0x114",
        "chainId": "0x8157"
      },
      "additionalContracts": [],
      "isFixedGasLimit": false
    },
    {
      "hash": null,
      "transactionType": "CALL",
      "contractName": null,
      "contractAddress": "0x0dfb5062def114fd7261e4385d8afcf15cf89e9e",
      "function": "setTokenTraits(uint256,uint256[5])",
      "arguments": [
        "43",
        "[1, 0, 25, 28, 32]"
      ],
      "transaction": {
        "from": "0xca067e20db2cdef80d1c7130e5b71c42c0305529",
        "to": "0x0dfb5062def114fd7261e4385d8afcf15cf89e9e",
        "gas": "0x29e79",
        "value": "0x0",
        "input": "0xa1ffda1f000000000000000000000000000000000000000000000000000000000000002b000000000000000000000000000000000000000000000000000000000000000100000000000000000000000000000000000000000000000000000000000000000000000000000000000000000000000000000000000000000000000000000019000000000000000000000000000000000000000000000000000000000000001c0000000000000000000000000000000000000000000000000000000000000020",
        "nonce": "0x115",
        "chainId": "0x8157"
      },
      "additionalContracts": [],
      "isFixedGasLimit": false
    },
    {
      "hash": null,
      "transactionType": "CALL",
      "contractName": null,
      "contractAddress": "0x0dfb5062def114fd7261e4385d8afcf15cf89e9e",
      "function": "setTokenTraits(uint256,uint256[5])",
      "arguments": [
        "44",
        "[2, 3, 2, 24, 23]"
      ],
      "transaction": {
        "from": "0xca067e20db2cdef80d1c7130e5b71c42c0305529",
        "to": "0x0dfb5062def114fd7261e4385d8afcf15cf89e9e",
        "gas": "0x3103a",
        "value": "0x0",
        "input": "0xa1ffda1f000000000000000000000000000000000000000000000000000000000000002c00000000000000000000000000000000000000000000000000000000000000020000000000000000000000000000000000000000000000000000000000000003000000000000000000000000000000000000000000000000000000000000000200000000000000000000000000000000000000000000000000000000000000180000000000000000000000000000000000000000000000000000000000000017",
        "nonce": "0x116",
        "chainId": "0x8157"
      },
      "additionalContracts": [],
      "isFixedGasLimit": false
    },
    {
      "hash": null,
      "transactionType": "CALL",
      "contractName": null,
      "contractAddress": "0x0dfb5062def114fd7261e4385d8afcf15cf89e9e",
      "function": "setTokenTraits(uint256,uint256[5])",
      "arguments": [
        "45",
        "[1, 1, 37, 15, 27]"
      ],
      "transaction": {
        "from": "0xca067e20db2cdef80d1c7130e5b71c42c0305529",
        "to": "0x0dfb5062def114fd7261e4385d8afcf15cf89e9e",
        "gas": "0x3103a",
        "value": "0x0",
        "input": "0xa1ffda1f000000000000000000000000000000000000000000000000000000000000002d000000000000000000000000000000000000000000000000000000000000000100000000000000000000000000000000000000000000000000000000000000010000000000000000000000000000000000000000000000000000000000000025000000000000000000000000000000000000000000000000000000000000000f000000000000000000000000000000000000000000000000000000000000001b",
        "nonce": "0x117",
        "chainId": "0x8157"
      },
      "additionalContracts": [],
      "isFixedGasLimit": false
    },
    {
      "hash": null,
      "transactionType": "CALL",
      "contractName": null,
      "contractAddress": "0x0dfb5062def114fd7261e4385d8afcf15cf89e9e",
      "function": "setTokenTraits(uint256,uint256[5])",
      "arguments": [
        "46",
        "[3, 3, 32, 21, 4]"
      ],
      "transaction": {
        "from": "0xca067e20db2cdef80d1c7130e5b71c42c0305529",
        "to": "0x0dfb5062def114fd7261e4385d8afcf15cf89e9e",
        "gas": "0x3103a",
        "value": "0x0",
        "input": "0xa1ffda1f000000000000000000000000000000000000000000000000000000000000002e00000000000000000000000000000000000000000000000000000000000000030000000000000000000000000000000000000000000000000000000000000003000000000000000000000000000000000000000000000000000000000000002000000000000000000000000000000000000000000000000000000000000000150000000000000000000000000000000000000000000000000000000000000004",
        "nonce": "0x118",
        "chainId": "0x8157"
      },
      "additionalContracts": [],
      "isFixedGasLimit": false
    },
    {
      "hash": null,
      "transactionType": "CALL",
      "contractName": null,
      "contractAddress": "0x0dfb5062def114fd7261e4385d8afcf15cf89e9e",
      "function": "setTokenTraits(uint256,uint256[5])",
      "arguments": [
        "47",
        "[0, 0, 3, 32, 27]"
      ],
      "transaction": {
        "from": "0xca067e20db2cdef80d1c7130e5b71c42c0305529",
        "to": "0x0dfb5062def114fd7261e4385d8afcf15cf89e9e",
        "gas": "0x22cb8",
        "value": "0x0",
        "input": "0xa1ffda1f000000000000000000000000000000000000000000000000000000000000002f0000000000000000000000000000000000000000000000000000000000000000000000000000000000000000000000000000000000000000000000000000000000000000000000000000000000000000000000000000000000000000000000030000000000000000000000000000000000000000000000000000000000000020000000000000000000000000000000000000000000000000000000000000001b",
        "nonce": "0x119",
        "chainId": "0x8157"
      },
      "additionalContracts": [],
      "isFixedGasLimit": false
    },
    {
      "hash": null,
      "transactionType": "CALL",
      "contractName": null,
      "contractAddress": "0x0dfb5062def114fd7261e4385d8afcf15cf89e9e",
      "function": "setTokenTraits(uint256,uint256[5])",
      "arguments": [
        "48",
        "[1, 1, 26, 13, 35]"
      ],
      "transaction": {
        "from": "0xca067e20db2cdef80d1c7130e5b71c42c0305529",
        "to": "0x0dfb5062def114fd7261e4385d8afcf15cf89e9e",
        "gas": "0x3103a",
        "value": "0x0",
        "input": "0xa1ffda1f000000000000000000000000000000000000000000000000000000000000003000000000000000000000000000000000000000000000000000000000000000010000000000000000000000000000000000000000000000000000000000000001000000000000000000000000000000000000000000000000000000000000001a000000000000000000000000000000000000000000000000000000000000000d0000000000000000000000000000000000000000000000000000000000000023",
        "nonce": "0x11a",
        "chainId": "0x8157"
      },
      "additionalContracts": [],
      "isFixedGasLimit": false
    },
    {
      "hash": null,
      "transactionType": "CALL",
      "contractName": null,
      "contractAddress": "0x0dfb5062def114fd7261e4385d8afcf15cf89e9e",
      "function": "setTokenTraits(uint256,uint256[5])",
      "arguments": [
        "49",
        "[2, 2, 37, 31, 4]"
      ],
      "transaction": {
        "from": "0xca067e20db2cdef80d1c7130e5b71c42c0305529",
        "to": "0x0dfb5062def114fd7261e4385d8afcf15cf89e9e",
        "gas": "0x3103a",
        "value": "0x0",
        "input": "0xa1ffda1f0000000000000000000000000000000000000000000000000000000000000031000000000000000000000000000000000000000000000000000000000000000200000000000000000000000000000000000000000000000000000000000000020000000000000000000000000000000000000000000000000000000000000025000000000000000000000000000000000000000000000000000000000000001f0000000000000000000000000000000000000000000000000000000000000004",
        "nonce": "0x11b",
        "chainId": "0x8157"
      },
      "additionalContracts": [],
      "isFixedGasLimit": false
    },
    {
      "hash": null,
      "transactionType": "CALL",
      "contractName": null,
      "contractAddress": "0x0dfb5062def114fd7261e4385d8afcf15cf89e9e",
      "function": "setTokenTraits(uint256,uint256[5])",
      "arguments": [
        "50",
        "[1, 3, 7, 0, 9]"
      ],
      "transaction": {
        "from": "0xca067e20db2cdef80d1c7130e5b71c42c0305529",
        "to": "0x0dfb5062def114fd7261e4385d8afcf15cf89e9e",
        "gas": "0x29e79",
        "value": "0x0",
        "input": "0xa1ffda1f000000000000000000000000000000000000000000000000000000000000003200000000000000000000000000000000000000000000000000000000000000010000000000000000000000000000000000000000000000000000000000000003000000000000000000000000000000000000000000000000000000000000000700000000000000000000000000000000000000000000000000000000000000000000000000000000000000000000000000000000000000000000000000000009",
        "nonce": "0x11c",
        "chainId": "0x8157"
      },
      "additionalContracts": [],
      "isFixedGasLimit": false
    },
    {
      "hash": null,
      "transactionType": "CALL",
      "contractName": null,
      "contractAddress": "0x0dfb5062def114fd7261e4385d8afcf15cf89e9e",
      "function": "setTokenTraits(uint256,uint256[5])",
      "arguments": [
        "51",
        "[0, 1, 2, 17, 20]"
      ],
      "transaction": {
        "from": "0xca067e20db2cdef80d1c7130e5b71c42c0305529",
        "to": "0x0dfb5062def114fd7261e4385d8afcf15cf89e9e",
        "gas": "0x29e79",
        "value": "0x0",
        "input": "0xa1ffda1f000000000000000000000000000000000000000000000000000000000000003300000000000000000000000000000000000000000000000000000000000000000000000000000000000000000000000000000000000000000000000000000001000000000000000000000000000000000000000000000000000000000000000200000000000000000000000000000000000000000000000000000000000000110000000000000000000000000000000000000000000000000000000000000014",
        "nonce": "0x11d",
        "chainId": "0x8157"
      },
      "additionalContracts": [],
      "isFixedGasLimit": false
    },
    {
      "hash": null,
      "transactionType": "CALL",
      "contractName": null,
      "contractAddress": "0x0dfb5062def114fd7261e4385d8afcf15cf89e9e",
      "function": "setTokenTraits(uint256,uint256[5])",
      "arguments": [
        "52",
        "[0, 3, 21, 5, 29]"
      ],
      "transaction": {
        "from": "0xca067e20db2cdef80d1c7130e5b71c42c0305529",
        "to": "0x0dfb5062def114fd7261e4385d8afcf15cf89e9e",
        "gas": "0x29e79",
        "value": "0x0",
        "input": "0xa1ffda1f00000000000000000000000000000000000000000000000000000000000000340000000000000000000000000000000000000000000000000000000000000000000000000000000000000000000000000000000000000000000000000000000300000000000000000000000000000000000000000000000000000000000000150000000000000000000000000000000000000000000000000000000000000005000000000000000000000000000000000000000000000000000000000000001d",
        "nonce": "0x11e",
        "chainId": "0x8157"
      },
      "additionalContracts": [],
      "isFixedGasLimit": false
    },
    {
      "hash": null,
      "transactionType": "CALL",
      "contractName": null,
      "contractAddress": "0x0dfb5062def114fd7261e4385d8afcf15cf89e9e",
      "function": "setTokenTraits(uint256,uint256[5])",
      "arguments": [
        "53",
        "[3, 3, 0, 7, 29]"
      ],
      "transaction": {
        "from": "0xca067e20db2cdef80d1c7130e5b71c42c0305529",
        "to": "0x0dfb5062def114fd7261e4385d8afcf15cf89e9e",
        "gas": "0x29e79",
        "value": "0x0",
        "input": "0xa1ffda1f00000000000000000000000000000000000000000000000000000000000000350000000000000000000000000000000000000000000000000000000000000003000000000000000000000000000000000000000000000000000000000000000300000000000000000000000000000000000000000000000000000000000000000000000000000000000000000000000000000000000000000000000000000007000000000000000000000000000000000000000000000000000000000000001d",
        "nonce": "0x11f",
        "chainId": "0x8157"
      },
      "additionalContracts": [],
      "isFixedGasLimit": false
    },
    {
      "hash": null,
      "transactionType": "CALL",
      "contractName": null,
      "contractAddress": "0x0dfb5062def114fd7261e4385d8afcf15cf89e9e",
      "function": "setTokenTraits(uint256,uint256[5])",
      "arguments": [
        "54",
        "[2, 1, 10, 16, 14]"
      ],
      "transaction": {
        "from": "0xca067e20db2cdef80d1c7130e5b71c42c0305529",
        "to": "0x0dfb5062def114fd7261e4385d8afcf15cf89e9e",
        "gas": "0x3103a",
        "value": "0x0",
        "input": "0xa1ffda1f000000000000000000000000000000000000000000000000000000000000003600000000000000000000000000000000000000000000000000000000000000020000000000000000000000000000000000000000000000000000000000000001000000000000000000000000000000000000000000000000000000000000000a0000000000000000000000000000000000000000000000000000000000000010000000000000000000000000000000000000000000000000000000000000000e",
        "nonce": "0x120",
        "chainId": "0x8157"
      },
      "additionalContracts": [],
      "isFixedGasLimit": false
    },
    {
      "hash": null,
      "transactionType": "CALL",
      "contractName": null,
      "contractAddress": "0x0dfb5062def114fd7261e4385d8afcf15cf89e9e",
      "function": "setTokenTraits(uint256,uint256[5])",
      "arguments": [
        "55",
        "[2, 3, 9, 15, 29]"
      ],
      "transaction": {
        "from": "0xca067e20db2cdef80d1c7130e5b71c42c0305529",
        "to": "0x0dfb5062def114fd7261e4385d8afcf15cf89e9e",
        "gas": "0x3103a",
        "value": "0x0",
        "input": "0xa1ffda1f0000000000000000000000000000000000000000000000000000000000000037000000000000000000000000000000000000000000000000000000000000000200000000000000000000000000000000000000000000000000000000000000030000000000000000000000000000000000000000000000000000000000000009000000000000000000000000000000000000000000000000000000000000000f000000000000000000000000000000000000000000000000000000000000001d",
        "nonce": "0x121",
        "chainId": "0x8157"
      },
      "additionalContracts": [],
      "isFixedGasLimit": false
    },
    {
      "hash": null,
      "transactionType": "CALL",
      "contractName": null,
      "contractAddress": "0x0dfb5062def114fd7261e4385d8afcf15cf89e9e",
      "function": "setTokenTraits(uint256,uint256[5])",
      "arguments": [
        "56",
        "[1, 2, 36, 32, 21]"
      ],
      "transaction": {
        "from": "0xca067e20db2cdef80d1c7130e5b71c42c0305529",
        "to": "0x0dfb5062def114fd7261e4385d8afcf15cf89e9e",
        "gas": "0x3103a",
        "value": "0x0",
        "input": "0xa1ffda1f000000000000000000000000000000000000000000000000000000000000003800000000000000000000000000000000000000000000000000000000000000010000000000000000000000000000000000000000000000000000000000000002000000000000000000000000000000000000000000000000000000000000002400000000000000000000000000000000000000000000000000000000000000200000000000000000000000000000000000000000000000000000000000000015",
        "nonce": "0x122",
        "chainId": "0x8157"
      },
      "additionalContracts": [],
      "isFixedGasLimit": false
    },
    {
      "hash": null,
      "transactionType": "CALL",
      "contractName": null,
      "contractAddress": "0x0dfb5062def114fd7261e4385d8afcf15cf89e9e",
      "function": "setTokenTraits(uint256,uint256[5])",
      "arguments": [
        "57",
        "[0, 1, 36, 25, 2]"
      ],
      "transaction": {
        "from": "0xca067e20db2cdef80d1c7130e5b71c42c0305529",
        "to": "0x0dfb5062def114fd7261e4385d8afcf15cf89e9e",
        "gas": "0x29e79",
        "value": "0x0",
        "input": "0xa1ffda1f000000000000000000000000000000000000000000000000000000000000003900000000000000000000000000000000000000000000000000000000000000000000000000000000000000000000000000000000000000000000000000000001000000000000000000000000000000000000000000000000000000000000002400000000000000000000000000000000000000000000000000000000000000190000000000000000000000000000000000000000000000000000000000000002",
        "nonce": "0x123",
        "chainId": "0x8157"
      },
      "additionalContracts": [],
      "isFixedGasLimit": false
    },
    {
      "hash": null,
      "transactionType": "CALL",
      "contractName": null,
      "contractAddress": "0x0dfb5062def114fd7261e4385d8afcf15cf89e9e",
      "function": "setTokenTraits(uint256,uint256[5])",
      "arguments": [
        "58",
        "[2, 2, 2, 0, 23]"
      ],
      "transaction": {
        "from": "0xca067e20db2cdef80d1c7130e5b71c42c0305529",
        "to": "0x0dfb5062def114fd7261e4385d8afcf15cf89e9e",
        "gas": "0x29e79",
        "value": "0x0",
        "input": "0xa1ffda1f000000000000000000000000000000000000000000000000000000000000003a00000000000000000000000000000000000000000000000000000000000000020000000000000000000000000000000000000000000000000000000000000002000000000000000000000000000000000000000000000000000000000000000200000000000000000000000000000000000000000000000000000000000000000000000000000000000000000000000000000000000000000000000000000017",
        "nonce": "0x124",
        "chainId": "0x8157"
      },
      "additionalContracts": [],
      "isFixedGasLimit": false
    },
    {
      "hash": null,
      "transactionType": "CALL",
      "contractName": null,
      "contractAddress": "0x0dfb5062def114fd7261e4385d8afcf15cf89e9e",
      "function": "setTokenTraits(uint256,uint256[5])",
      "arguments": [
        "59",
        "[3, 1, 30, 3, 31]"
      ],
      "transaction": {
        "from": "0xca067e20db2cdef80d1c7130e5b71c42c0305529",
        "to": "0x0dfb5062def114fd7261e4385d8afcf15cf89e9e",
        "gas": "0x3103a",
        "value": "0x0",
        "input": "0xa1ffda1f000000000000000000000000000000000000000000000000000000000000003b00000000000000000000000000000000000000000000000000000000000000030000000000000000000000000000000000000000000000000000000000000001000000000000000000000000000000000000000000000000000000000000001e0000000000000000000000000000000000000000000000000000000000000003000000000000000000000000000000000000000000000000000000000000001f",
        "nonce": "0x125",
        "chainId": "0x8157"
      },
      "additionalContracts": [],
      "isFixedGasLimit": false
    },
    {
      "hash": null,
      "transactionType": "CALL",
      "contractName": null,
      "contractAddress": "0x0dfb5062def114fd7261e4385d8afcf15cf89e9e",
      "function": "setTokenTraits(uint256,uint256[5])",
      "arguments": [
        "60",
        "[3, 0, 21, 23, 25]"
      ],
      "transaction": {
        "from": "0xca067e20db2cdef80d1c7130e5b71c42c0305529",
        "to": "0x0dfb5062def114fd7261e4385d8afcf15cf89e9e",
        "gas": "0x29e79",
        "value": "0x0",
        "input": "0xa1ffda1f000000000000000000000000000000000000000000000000000000000000003c00000000000000000000000000000000000000000000000000000000000000030000000000000000000000000000000000000000000000000000000000000000000000000000000000000000000000000000000000000000000000000000001500000000000000000000000000000000000000000000000000000000000000170000000000000000000000000000000000000000000000000000000000000019",
        "nonce": "0x126",
        "chainId": "0x8157"
      },
      "additionalContracts": [],
      "isFixedGasLimit": false
    },
    {
      "hash": null,
      "transactionType": "CALL",
      "contractName": null,
      "contractAddress": "0x0dfb5062def114fd7261e4385d8afcf15cf89e9e",
      "function": "setTokenTraits(uint256,uint256[5])",
      "arguments": [
        "61",
        "[2, 2, 1, 26, 25]"
      ],
      "transaction": {
        "from": "0xca067e20db2cdef80d1c7130e5b71c42c0305529",
        "to": "0x0dfb5062def114fd7261e4385d8afcf15cf89e9e",
        "gas": "0x3103a",
        "value": "0x0",
        "input": "0xa1ffda1f000000000000000000000000000000000000000000000000000000000000003d000000000000000000000000000000000000000000000000000000000000000200000000000000000000000000000000000000000000000000000000000000020000000000000000000000000000000000000000000000000000000000000001000000000000000000000000000000000000000000000000000000000000001a0000000000000000000000000000000000000000000000000000000000000019",
        "nonce": "0x127",
        "chainId": "0x8157"
      },
      "additionalContracts": [],
      "isFixedGasLimit": false
    },
    {
      "hash": null,
      "transactionType": "CALL",
      "contractName": null,
      "contractAddress": "0x0dfb5062def114fd7261e4385d8afcf15cf89e9e",
      "function": "setTokenTraits(uint256,uint256[5])",
      "arguments": [
        "62",
        "[3, 2, 4, 19, 5]"
      ],
      "transaction": {
        "from": "0xca067e20db2cdef80d1c7130e5b71c42c0305529",
        "to": "0x0dfb5062def114fd7261e4385d8afcf15cf89e9e",
        "gas": "0x3103a",
        "value": "0x0",
        "input": "0xa1ffda1f000000000000000000000000000000000000000000000000000000000000003e00000000000000000000000000000000000000000000000000000000000000030000000000000000000000000000000000000000000000000000000000000002000000000000000000000000000000000000000000000000000000000000000400000000000000000000000000000000000000000000000000000000000000130000000000000000000000000000000000000000000000000000000000000005",
        "nonce": "0x128",
        "chainId": "0x8157"
      },
      "additionalContracts": [],
      "isFixedGasLimit": false
    },
    {
      "hash": null,
      "transactionType": "CALL",
      "contractName": null,
      "contractAddress": "0x0dfb5062def114fd7261e4385d8afcf15cf89e9e",
      "function": "setTokenTraits(uint256,uint256[5])",
      "arguments": [
        "63",
        "[2, 3, 9, 0, 25]"
      ],
      "transaction": {
        "from": "0xca067e20db2cdef80d1c7130e5b71c42c0305529",
        "to": "0x0dfb5062def114fd7261e4385d8afcf15cf89e9e",
        "gas": "0x29e79",
        "value": "0x0",
        "input": "0xa1ffda1f000000000000000000000000000000000000000000000000000000000000003f00000000000000000000000000000000000000000000000000000000000000020000000000000000000000000000000000000000000000000000000000000003000000000000000000000000000000000000000000000000000000000000000900000000000000000000000000000000000000000000000000000000000000000000000000000000000000000000000000000000000000000000000000000019",
        "nonce": "0x129",
        "chainId": "0x8157"
      },
      "additionalContracts": [],
      "isFixedGasLimit": false
    },
    {
      "hash": null,
      "transactionType": "CALL",
      "contractName": null,
      "contractAddress": "0x0dfb5062def114fd7261e4385d8afcf15cf89e9e",
      "function": "setTokenTraits(uint256,uint256[5])",
      "arguments": [
        "64",
        "[3, 3, 32, 2, 21]"
      ],
      "transaction": {
        "from": "0xca067e20db2cdef80d1c7130e5b71c42c0305529",
        "to": "0x0dfb5062def114fd7261e4385d8afcf15cf89e9e",
        "gas": "0x3103a",
        "value": "0x0",
        "input": "0xa1ffda1f000000000000000000000000000000000000000000000000000000000000004000000000000000000000000000000000000000000000000000000000000000030000000000000000000000000000000000000000000000000000000000000003000000000000000000000000000000000000000000000000000000000000002000000000000000000000000000000000000000000000000000000000000000020000000000000000000000000000000000000000000000000000000000000015",
        "nonce": "0x12a",
        "chainId": "0x8157"
      },
      "additionalContracts": [],
      "isFixedGasLimit": false
    },
    {
      "hash": null,
      "transactionType": "CALL",
      "contractName": null,
      "contractAddress": "0x0dfb5062def114fd7261e4385d8afcf15cf89e9e",
      "function": "setTokenTraits(uint256,uint256[5])",
      "arguments": [
        "65",
        "[0, 1, 2, 19, 10]"
      ],
      "transaction": {
        "from": "0xca067e20db2cdef80d1c7130e5b71c42c0305529",
        "to": "0x0dfb5062def114fd7261e4385d8afcf15cf89e9e",
        "gas": "0x29e79",
        "value": "0x0",
        "input": "0xa1ffda1f00000000000000000000000000000000000000000000000000000000000000410000000000000000000000000000000000000000000000000000000000000000000000000000000000000000000000000000000000000000000000000000000100000000000000000000000000000000000000000000000000000000000000020000000000000000000000000000000000000000000000000000000000000013000000000000000000000000000000000000000000000000000000000000000a",
        "nonce": "0x12b",
        "chainId": "0x8157"
      },
      "additionalContracts": [],
      "isFixedGasLimit": false
    },
    {
      "hash": null,
      "transactionType": "CALL",
      "contractName": null,
      "contractAddress": "0x0dfb5062def114fd7261e4385d8afcf15cf89e9e",
      "function": "setTokenTraits(uint256,uint256[5])",
      "arguments": [
        "66",
        "[2, 2, 5, 2, 10]"
      ],
      "transaction": {
        "from": "0xca067e20db2cdef80d1c7130e5b71c42c0305529",
        "to": "0x0dfb5062def114fd7261e4385d8afcf15cf89e9e",
        "gas": "0x3103a",
        "value": "0x0",
        "input": "0xa1ffda1f00000000000000000000000000000000000000000000000000000000000000420000000000000000000000000000000000000000000000000000000000000002000000000000000000000000000000000000000000000000000000000000000200000000000000000000000000000000000000000000000000000000000000050000000000000000000000000000000000000000000000000000000000000002000000000000000000000000000000000000000000000000000000000000000a",
        "nonce": "0x12c",
        "chainId": "0x8157"
      },
      "additionalContracts": [],
      "isFixedGasLimit": false
    },
    {
      "hash": null,
      "transactionType": "CALL",
      "contractName": null,
      "contractAddress": "0x0dfb5062def114fd7261e4385d8afcf15cf89e9e",
      "function": "setTokenTraits(uint256,uint256[5])",
      "arguments": [
        "67",
        "[3, 0, 19, 9, 2]"
      ],
      "transaction": {
        "from": "0xca067e20db2cdef80d1c7130e5b71c42c0305529",
        "to": "0x0dfb5062def114fd7261e4385d8afcf15cf89e9e",
        "gas": "0x29e79",
        "value": "0x0",
        "input": "0xa1ffda1f000000000000000000000000000000000000000000000000000000000000004300000000000000000000000000000000000000000000000000000000000000030000000000000000000000000000000000000000000000000000000000000000000000000000000000000000000000000000000000000000000000000000001300000000000000000000000000000000000000000000000000000000000000090000000000000000000000000000000000000000000000000000000000000002",
        "nonce": "0x12d",
        "chainId": "0x8157"
      },
      "additionalContracts": [],
      "isFixedGasLimit": false
    },
    {
      "hash": null,
      "transactionType": "CALL",
      "contractName": null,
      "contractAddress": "0x0dfb5062def114fd7261e4385d8afcf15cf89e9e",
      "function": "setTokenTraits(uint256,uint256[5])",
      "arguments": [
        "68",
        "[1, 0, 29, 14, 21]"
      ],
      "transaction": {
        "from": "0xca067e20db2cdef80d1c7130e5b71c42c0305529",
        "to": "0x0dfb5062def114fd7261e4385d8afcf15cf89e9e",
        "gas": "0x29e79",
        "value": "0x0",
        "input": "0xa1ffda1f000000000000000000000000000000000000000000000000000000000000004400000000000000000000000000000000000000000000000000000000000000010000000000000000000000000000000000000000000000000000000000000000000000000000000000000000000000000000000000000000000000000000001d000000000000000000000000000000000000000000000000000000000000000e0000000000000000000000000000000000000000000000000000000000000015",
        "nonce": "0x12e",
        "chainId": "0x8157"
      },
      "additionalContracts": [],
      "isFixedGasLimit": false
    },
    {
      "hash": null,
      "transactionType": "CALL",
      "contractName": null,
      "contractAddress": "0x0dfb5062def114fd7261e4385d8afcf15cf89e9e",
      "function": "setTokenTraits(uint256,uint256[5])",
      "arguments": [
        "69",
        "[3, 1, 15, 28, 25]"
      ],
      "transaction": {
        "from": "0xca067e20db2cdef80d1c7130e5b71c42c0305529",
        "to": "0x0dfb5062def114fd7261e4385d8afcf15cf89e9e",
        "gas": "0x3103a",
        "value": "0x0",
        "input": "0xa1ffda1f000000000000000000000000000000000000000000000000000000000000004500000000000000000000000000000000000000000000000000000000000000030000000000000000000000000000000000000000000000000000000000000001000000000000000000000000000000000000000000000000000000000000000f000000000000000000000000000000000000000000000000000000000000001c0000000000000000000000000000000000000000000000000000000000000019",
        "nonce": "0x12f",
        "chainId": "0x8157"
      },
      "additionalContracts": [],
      "isFixedGasLimit": false
    },
    {
      "hash": null,
      "transactionType": "CALL",
      "contractName": null,
      "contractAddress": "0x0dfb5062def114fd7261e4385d8afcf15cf89e9e",
      "function": "setTokenTraits(uint256,uint256[5])",
      "arguments": [
        "70",
        "[0, 2, 27, 21, 22]"
      ],
      "transaction": {
        "from": "0xca067e20db2cdef80d1c7130e5b71c42c0305529",
        "to": "0x0dfb5062def114fd7261e4385d8afcf15cf89e9e",
        "gas": "0x29e79",
        "value": "0x0",
        "input": "0xa1ffda1f000000000000000000000000000000000000000000000000000000000000004600000000000000000000000000000000000000000000000000000000000000000000000000000000000000000000000000000000000000000000000000000002000000000000000000000000000000000000000000000000000000000000001b00000000000000000000000000000000000000000000000000000000000000150000000000000000000000000000000000000000000000000000000000000016",
        "nonce": "0x130",
        "chainId": "0x8157"
      },
      "additionalContracts": [],
      "isFixedGasLimit": false
    },
    {
      "hash": null,
      "transactionType": "CALL",
      "contractName": null,
      "contractAddress": "0x0dfb5062def114fd7261e4385d8afcf15cf89e9e",
      "function": "setTokenTraits(uint256,uint256[5])",
      "arguments": [
        "71",
        "[3, 2, 29, 24, 17]"
      ],
      "transaction": {
        "from": "0xca067e20db2cdef80d1c7130e5b71c42c0305529",
        "to": "0x0dfb5062def114fd7261e4385d8afcf15cf89e9e",
        "gas": "0x3103a",
        "value": "0x0",
        "input": "0xa1ffda1f000000000000000000000000000000000000000000000000000000000000004700000000000000000000000000000000000000000000000000000000000000030000000000000000000000000000000000000000000000000000000000000002000000000000000000000000000000000000000000000000000000000000001d00000000000000000000000000000000000000000000000000000000000000180000000000000000000000000000000000000000000000000000000000000011",
        "nonce": "0x131",
        "chainId": "0x8157"
      },
      "additionalContracts": [],
      "isFixedGasLimit": false
    },
    {
      "hash": null,
      "transactionType": "CALL",
      "contractName": null,
      "contractAddress": "0x0dfb5062def114fd7261e4385d8afcf15cf89e9e",
      "function": "setTokenTraits(uint256,uint256[5])",
      "arguments": [
        "72",
        "[0, 0, 26, 14, 34]"
      ],
      "transaction": {
        "from": "0xca067e20db2cdef80d1c7130e5b71c42c0305529",
        "to": "0x0dfb5062def114fd7261e4385d8afcf15cf89e9e",
        "gas": "0x22cb8",
        "value": "0x0",
        "input": "0xa1ffda1f000000000000000000000000000000000000000000000000000000000000004800000000000000000000000000000000000000000000000000000000000000000000000000000000000000000000000000000000000000000000000000000000000000000000000000000000000000000000000000000000000000000000001a000000000000000000000000000000000000000000000000000000000000000e0000000000000000000000000000000000000000000000000000000000000022",
        "nonce": "0x132",
        "chainId": "0x8157"
      },
      "additionalContracts": [],
      "isFixedGasLimit": false
    },
    {
      "hash": null,
      "transactionType": "CALL",
      "contractName": null,
      "contractAddress": "0x0dfb5062def114fd7261e4385d8afcf15cf89e9e",
      "function": "setTokenTraits(uint256,uint256[5])",
      "arguments": [
        "73",
        "[3, 1, 23, 19, 26]"
      ],
      "transaction": {
        "from": "0xca067e20db2cdef80d1c7130e5b71c42c0305529",
        "to": "0x0dfb5062def114fd7261e4385d8afcf15cf89e9e",
        "gas": "0x3103a",
        "value": "0x0",
        "input": "0xa1ffda1f00000000000000000000000000000000000000000000000000000000000000490000000000000000000000000000000000000000000000000000000000000003000000000000000000000000000000000000000000000000000000000000000100000000000000000000000000000000000000000000000000000000000000170000000000000000000000000000000000000000000000000000000000000013000000000000000000000000000000000000000000000000000000000000001a",
        "nonce": "0x133",
        "chainId": "0x8157"
      },
      "additionalContracts": [],
      "isFixedGasLimit": false
    },
    {
      "hash": null,
      "transactionType": "CALL",
      "contractName": null,
      "contractAddress": "0x0dfb5062def114fd7261e4385d8afcf15cf89e9e",
      "function": "setTokenTraits(uint256,uint256[5])",
      "arguments": [
        "74",
        "[0, 1, 31, 21, 26]"
      ],
      "transaction": {
        "from": "0xca067e20db2cdef80d1c7130e5b71c42c0305529",
        "to": "0x0dfb5062def114fd7261e4385d8afcf15cf89e9e",
        "gas": "0x29e79",
        "value": "0x0",
        "input": "0xa1ffda1f000000000000000000000000000000000000000000000000000000000000004a00000000000000000000000000000000000000000000000000000000000000000000000000000000000000000000000000000000000000000000000000000001000000000000000000000000000000000000000000000000000000000000001f0000000000000000000000000000000000000000000000000000000000000015000000000000000000000000000000000000000000000000000000000000001a",
        "nonce": "0x134",
        "chainId": "0x8157"
      },
      "additionalContracts": [],
      "isFixedGasLimit": false
    },
    {
      "hash": null,
      "transactionType": "CALL",
      "contractName": null,
      "contractAddress": "0x0dfb5062def114fd7261e4385d8afcf15cf89e9e",
      "function": "setTokenTraits(uint256,uint256[5])",
      "arguments": [
        "75",
        "[0, 2, 11, 6, 28]"
      ],
      "transaction": {
        "from": "0xca067e20db2cdef80d1c7130e5b71c42c0305529",
        "to": "0x0dfb5062def114fd7261e4385d8afcf15cf89e9e",
        "gas": "0x29e79",
        "value": "0x0",
        "input": "0xa1ffda1f000000000000000000000000000000000000000000000000000000000000004b00000000000000000000000000000000000000000000000000000000000000000000000000000000000000000000000000000000000000000000000000000002000000000000000000000000000000000000000000000000000000000000000b0000000000000000000000000000000000000000000000000000000000000006000000000000000000000000000000000000000000000000000000000000001c",
        "nonce": "0x135",
        "chainId": "0x8157"
      },
      "additionalContracts": [],
      "isFixedGasLimit": false
    },
    {
      "hash": null,
      "transactionType": "CALL",
      "contractName": null,
      "contractAddress": "0x0dfb5062def114fd7261e4385d8afcf15cf89e9e",
      "function": "setTokenTraits(uint256,uint256[5])",
      "arguments": [
        "76",
        "[1, 2, 16, 11, 30]"
      ],
      "transaction": {
        "from": "0xca067e20db2cdef80d1c7130e5b71c42c0305529",
        "to": "0x0dfb5062def114fd7261e4385d8afcf15cf89e9e",
        "gas": "0x3103a",
        "value": "0x0",
        "input": "0xa1ffda1f000000000000000000000000000000000000000000000000000000000000004c000000000000000000000000000000000000000000000000000000000000000100000000000000000000000000000000000000000000000000000000000000020000000000000000000000000000000000000000000000000000000000000010000000000000000000000000000000000000000000000000000000000000000b000000000000000000000000000000000000000000000000000000000000001e",
        "nonce": "0x136",
        "chainId": "0x8157"
      },
      "additionalContracts": [],
      "isFixedGasLimit": false
    },
    {
      "hash": null,
      "transactionType": "CALL",
      "contractName": null,
      "contractAddress": "0x0dfb5062def114fd7261e4385d8afcf15cf89e9e",
      "function": "setTokenTraits(uint256,uint256[5])",
      "arguments": [
        "77",
        "[3, 1, 19, 30, 24]"
      ],
      "transaction": {
        "from": "0xca067e20db2cdef80d1c7130e5b71c42c0305529",
        "to": "0x0dfb5062def114fd7261e4385d8afcf15cf89e9e",
        "gas": "0x3103a",
        "value": "0x0",
        "input": "0xa1ffda1f000000000000000000000000000000000000000000000000000000000000004d000000000000000000000000000000000000000000000000000000000000000300000000000000000000000000000000000000000000000000000000000000010000000000000000000000000000000000000000000000000000000000000013000000000000000000000000000000000000000000000000000000000000001e0000000000000000000000000000000000000000000000000000000000000018",
        "nonce": "0x137",
        "chainId": "0x8157"
      },
      "additionalContracts": [],
      "isFixedGasLimit": false
    },
    {
      "hash": null,
      "transactionType": "CALL",
      "contractName": null,
      "contractAddress": "0x0dfb5062def114fd7261e4385d8afcf15cf89e9e",
      "function": "setTokenTraits(uint256,uint256[5])",
      "arguments": [
        "78",
        "[0, 2, 1, 4, 11]"
      ],
      "transaction": {
        "from": "0xca067e20db2cdef80d1c7130e5b71c42c0305529",
        "to": "0x0dfb5062def114fd7261e4385d8afcf15cf89e9e",
        "gas": "0x29e79",
        "value": "0x0",
        "input": "0xa1ffda1f000000000000000000000000000000000000000000000000000000000000004e0000000000000000000000000000000000000000000000000000000000000000000000000000000000000000000000000000000000000000000000000000000200000000000000000000000000000000000000000000000000000000000000010000000000000000000000000000000000000000000000000000000000000004000000000000000000000000000000000000000000000000000000000000000b",
        "nonce": "0x138",
        "chainId": "0x8157"
      },
      "additionalContracts": [],
      "isFixedGasLimit": false
    },
    {
      "hash": null,
      "transactionType": "CALL",
      "contractName": null,
      "contractAddress": "0x0dfb5062def114fd7261e4385d8afcf15cf89e9e",
      "function": "setTokenTraits(uint256,uint256[5])",
      "arguments": [
        "79",
        "[0, 0, 1, 8, 34]"
      ],
      "transaction": {
        "from": "0xca067e20db2cdef80d1c7130e5b71c42c0305529",
        "to": "0x0dfb5062def114fd7261e4385d8afcf15cf89e9e",
        "gas": "0x22cb8",
        "value": "0x0",
        "input": "0xa1ffda1f000000000000000000000000000000000000000000000000000000000000004f00000000000000000000000000000000000000000000000000000000000000000000000000000000000000000000000000000000000000000000000000000000000000000000000000000000000000000000000000000000000000000000000100000000000000000000000000000000000000000000000000000000000000080000000000000000000000000000000000000000000000000000000000000022",
        "nonce": "0x139",
        "chainId": "0x8157"
      },
      "additionalContracts": [],
      "isFixedGasLimit": false
    },
    {
      "hash": null,
      "transactionType": "CALL",
      "contractName": null,
      "contractAddress": "0x0dfb5062def114fd7261e4385d8afcf15cf89e9e",
      "function": "setTokenTraits(uint256,uint256[5])",
      "arguments": [
        "80",
        "[2, 3, 24, 10, 25]"
      ],
      "transaction": {
        "from": "0xca067e20db2cdef80d1c7130e5b71c42c0305529",
        "to": "0x0dfb5062def114fd7261e4385d8afcf15cf89e9e",
        "gas": "0x3103a",
        "value": "0x0",
        "input": "0xa1ffda1f0000000000000000000000000000000000000000000000000000000000000050000000000000000000000000000000000000000000000000000000000000000200000000000000000000000000000000000000000000000000000000000000030000000000000000000000000000000000000000000000000000000000000018000000000000000000000000000000000000000000000000000000000000000a0000000000000000000000000000000000000000000000000000000000000019",
        "nonce": "0x13a",
        "chainId": "0x8157"
      },
      "additionalContracts": [],
      "isFixedGasLimit": false
    },
    {
      "hash": null,
      "transactionType": "CALL",
      "contractName": null,
      "contractAddress": "0x0dfb5062def114fd7261e4385d8afcf15cf89e9e",
      "function": "setTokenTraits(uint256,uint256[5])",
      "arguments": [
        "81",
        "[0, 3, 14, 2, 34]"
      ],
      "transaction": {
        "from": "0xca067e20db2cdef80d1c7130e5b71c42c0305529",
        "to": "0x0dfb5062def114fd7261e4385d8afcf15cf89e9e",
        "gas": "0x29e79",
        "value": "0x0",
        "input": "0xa1ffda1f000000000000000000000000000000000000000000000000000000000000005100000000000000000000000000000000000000000000000000000000000000000000000000000000000000000000000000000000000000000000000000000003000000000000000000000000000000000000000000000000000000000000000e00000000000000000000000000000000000000000000000000000000000000020000000000000000000000000000000000000000000000000000000000000022",
        "nonce": "0x13b",
        "chainId": "0x8157"
      },
      "additionalContracts": [],
      "isFixedGasLimit": false
    },
    {
      "hash": null,
      "transactionType": "CALL",
      "contractName": null,
      "contractAddress": "0x0dfb5062def114fd7261e4385d8afcf15cf89e9e",
      "function": "setTokenTraits(uint256,uint256[5])",
      "arguments": [
        "82",
        "[3, 1, 10, 27, 26]"
      ],
      "transaction": {
        "from": "0xca067e20db2cdef80d1c7130e5b71c42c0305529",
        "to": "0x0dfb5062def114fd7261e4385d8afcf15cf89e9e",
        "gas": "0x3103a",
        "value": "0x0",
        "input": "0xa1ffda1f000000000000000000000000000000000000000000000000000000000000005200000000000000000000000000000000000000000000000000000000000000030000000000000000000000000000000000000000000000000000000000000001000000000000000000000000000000000000000000000000000000000000000a000000000000000000000000000000000000000000000000000000000000001b000000000000000000000000000000000000000000000000000000000000001a",
        "nonce": "0x13c",
        "chainId": "0x8157"
      },
      "additionalContracts": [],
      "isFixedGasLimit": false
    },
    {
      "hash": null,
      "transactionType": "CALL",
      "contractName": null,
      "contractAddress": "0x0dfb5062def114fd7261e4385d8afcf15cf89e9e",
      "function": "setTokenTraits(uint256,uint256[5])",
      "arguments": [
        "83",
        "[1, 3, 18, 6, 15]"
      ],
      "transaction": {
        "from": "0xca067e20db2cdef80d1c7130e5b71c42c0305529",
        "to": "0x0dfb5062def114fd7261e4385d8afcf15cf89e9e",
        "gas": "0x3103a",
        "value": "0x0",
        "input": "0xa1ffda1f00000000000000000000000000000000000000000000000000000000000000530000000000000000000000000000000000000000000000000000000000000001000000000000000000000000000000000000000000000000000000000000000300000000000000000000000000000000000000000000000000000000000000120000000000000000000000000000000000000000000000000000000000000006000000000000000000000000000000000000000000000000000000000000000f",
        "nonce": "0x13d",
        "chainId": "0x8157"
      },
      "additionalContracts": [],
      "isFixedGasLimit": false
    },
    {
      "hash": null,
      "transactionType": "CALL",
      "contractName": null,
      "contractAddress": "0x0dfb5062def114fd7261e4385d8afcf15cf89e9e",
      "function": "setTokenTraits(uint256,uint256[5])",
      "arguments": [
        "84",
        "[3, 2, 9, 1, 28]"
      ],
      "transaction": {
        "from": "0xca067e20db2cdef80d1c7130e5b71c42c0305529",
        "to": "0x0dfb5062def114fd7261e4385d8afcf15cf89e9e",
        "gas": "0x3103a",
        "value": "0x0",
        "input": "0xa1ffda1f00000000000000000000000000000000000000000000000000000000000000540000000000000000000000000000000000000000000000000000000000000003000000000000000000000000000000000000000000000000000000000000000200000000000000000000000000000000000000000000000000000000000000090000000000000000000000000000000000000000000000000000000000000001000000000000000000000000000000000000000000000000000000000000001c",
        "nonce": "0x13e",
        "chainId": "0x8157"
      },
      "additionalContracts": [],
      "isFixedGasLimit": false
    },
    {
      "hash": null,
      "transactionType": "CALL",
      "contractName": null,
      "contractAddress": "0x0dfb5062def114fd7261e4385d8afcf15cf89e9e",
      "function": "setTokenTraits(uint256,uint256[5])",
      "arguments": [
        "85",
        "[1, 1, 25, 27, 29]"
      ],
      "transaction": {
        "from": "0xca067e20db2cdef80d1c7130e5b71c42c0305529",
        "to": "0x0dfb5062def114fd7261e4385d8afcf15cf89e9e",
        "gas": "0x3103a",
        "value": "0x0",
        "input": "0xa1ffda1f0000000000000000000000000000000000000000000000000000000000000055000000000000000000000000000000000000000000000000000000000000000100000000000000000000000000000000000000000000000000000000000000010000000000000000000000000000000000000000000000000000000000000019000000000000000000000000000000000000000000000000000000000000001b000000000000000000000000000000000000000000000000000000000000001d",
        "nonce": "0x13f",
        "chainId": "0x8157"
      },
      "additionalContracts": [],
      "isFixedGasLimit": false
    },
    {
      "hash": null,
      "transactionType": "CALL",
      "contractName": null,
      "contractAddress": "0x0dfb5062def114fd7261e4385d8afcf15cf89e9e",
      "function": "setTokenTraits(uint256,uint256[5])",
      "arguments": [
        "86",
        "[2, 2, 28, 32, 13]"
      ],
      "transaction": {
        "from": "0xca067e20db2cdef80d1c7130e5b71c42c0305529",
        "to": "0x0dfb5062def114fd7261e4385d8afcf15cf89e9e",
        "gas": "0x3103a",
        "value": "0x0",
        "input": "0xa1ffda1f000000000000000000000000000000000000000000000000000000000000005600000000000000000000000000000000000000000000000000000000000000020000000000000000000000000000000000000000000000000000000000000002000000000000000000000000000000000000000000000000000000000000001c0000000000000000000000000000000000000000000000000000000000000020000000000000000000000000000000000000000000000000000000000000000d",
        "nonce": "0x140",
        "chainId": "0x8157"
      },
      "additionalContracts": [],
      "isFixedGasLimit": false
    },
    {
      "hash": null,
      "transactionType": "CALL",
      "contractName": null,
      "contractAddress": "0x0dfb5062def114fd7261e4385d8afcf15cf89e9e",
      "function": "setTokenTraits(uint256,uint256[5])",
      "arguments": [
        "87",
        "[3, 2, 3, 0, 7]"
      ],
      "transaction": {
        "from": "0xca067e20db2cdef80d1c7130e5b71c42c0305529",
        "to": "0x0dfb5062def114fd7261e4385d8afcf15cf89e9e",
        "gas": "0x29e79",
        "value": "0x0",
        "input": "0xa1ffda1f000000000000000000000000000000000000000000000000000000000000005700000000000000000000000000000000000000000000000000000000000000030000000000000000000000000000000000000000000000000000000000000002000000000000000000000000000000000000000000000000000000000000000300000000000000000000000000000000000000000000000000000000000000000000000000000000000000000000000000000000000000000000000000000007",
        "nonce": "0x141",
        "chainId": "0x8157"
      },
      "additionalContracts": [],
      "isFixedGasLimit": false
    },
    {
      "hash": null,
      "transactionType": "CALL",
      "contractName": null,
      "contractAddress": "0x0dfb5062def114fd7261e4385d8afcf15cf89e9e",
      "function": "setTokenTraits(uint256,uint256[5])",
      "arguments": [
        "88",
        "[1, 1, 31, 4, 23]"
      ],
      "transaction": {
        "from": "0xca067e20db2cdef80d1c7130e5b71c42c0305529",
        "to": "0x0dfb5062def114fd7261e4385d8afcf15cf89e9e",
        "gas": "0x3103a",
        "value": "0x0",
        "input": "0xa1ffda1f000000000000000000000000000000000000000000000000000000000000005800000000000000000000000000000000000000000000000000000000000000010000000000000000000000000000000000000000000000000000000000000001000000000000000000000000000000000000000000000000000000000000001f00000000000000000000000000000000000000000000000000000000000000040000000000000000000000000000000000000000000000000000000000000017",
        "nonce": "0x142",
        "chainId": "0x8157"
      },
      "additionalContracts": [],
      "isFixedGasLimit": false
    },
    {
      "hash": null,
      "transactionType": "CALL",
      "contractName": null,
      "contractAddress": "0x0dfb5062def114fd7261e4385d8afcf15cf89e9e",
      "function": "setTokenTraits(uint256,uint256[5])",
      "arguments": [
        "89",
        "[3, 3, 0, 9, 12]"
      ],
      "transaction": {
        "from": "0xca067e20db2cdef80d1c7130e5b71c42c0305529",
        "to": "0x0dfb5062def114fd7261e4385d8afcf15cf89e9e",
        "gas": "0x29e79",
        "value": "0x0",
        "input": "0xa1ffda1f00000000000000000000000000000000000000000000000000000000000000590000000000000000000000000000000000000000000000000000000000000003000000000000000000000000000000000000000000000000000000000000000300000000000000000000000000000000000000000000000000000000000000000000000000000000000000000000000000000000000000000000000000000009000000000000000000000000000000000000000000000000000000000000000c",
        "nonce": "0x143",
        "chainId": "0x8157"
      },
      "additionalContracts": [],
      "isFixedGasLimit": false
    },
    {
      "hash": null,
      "transactionType": "CALL",
      "contractName": null,
      "contractAddress": "0x0dfb5062def114fd7261e4385d8afcf15cf89e9e",
      "function": "setTokenTraits(uint256,uint256[5])",
      "arguments": [
        "90",
        "[0, 3, 22, 35, 27]"
      ],
      "transaction": {
        "from": "0xca067e20db2cdef80d1c7130e5b71c42c0305529",
        "to": "0x0dfb5062def114fd7261e4385d8afcf15cf89e9e",
        "gas": "0x29e79",
        "value": "0x0",
        "input": "0xa1ffda1f000000000000000000000000000000000000000000000000000000000000005a0000000000000000000000000000000000000000000000000000000000000000000000000000000000000000000000000000000000000000000000000000000300000000000000000000000000000000000000000000000000000000000000160000000000000000000000000000000000000000000000000000000000000023000000000000000000000000000000000000000000000000000000000000001b",
        "nonce": "0x144",
        "chainId": "0x8157"
      },
      "additionalContracts": [],
      "isFixedGasLimit": false
    },
    {
      "hash": null,
      "transactionType": "CALL",
      "contractName": null,
      "contractAddress": "0x0dfb5062def114fd7261e4385d8afcf15cf89e9e",
      "function": "setTokenTraits(uint256,uint256[5])",
      "arguments": [
        "91",
        "[2, 2, 22, 18, 1]"
      ],
      "transaction": {
        "from": "0xca067e20db2cdef80d1c7130e5b71c42c0305529",
        "to": "0x0dfb5062def114fd7261e4385d8afcf15cf89e9e",
        "gas": "0x3103a",
        "value": "0x0",
        "input": "0xa1ffda1f000000000000000000000000000000000000000000000000000000000000005b00000000000000000000000000000000000000000000000000000000000000020000000000000000000000000000000000000000000000000000000000000002000000000000000000000000000000000000000000000000000000000000001600000000000000000000000000000000000000000000000000000000000000120000000000000000000000000000000000000000000000000000000000000001",
        "nonce": "0x145",
        "chainId": "0x8157"
      },
      "additionalContracts": [],
      "isFixedGasLimit": false
    },
    {
      "hash": null,
      "transactionType": "CALL",
      "contractName": null,
      "contractAddress": "0x0dfb5062def114fd7261e4385d8afcf15cf89e9e",
      "function": "setTokenTraits(uint256,uint256[5])",
      "arguments": [
        "92",
        "[1, 0, 2, 29, 14]"
      ],
      "transaction": {
        "from": "0xca067e20db2cdef80d1c7130e5b71c42c0305529",
        "to": "0x0dfb5062def114fd7261e4385d8afcf15cf89e9e",
        "gas": "0x29e79",
        "value": "0x0",
        "input": "0xa1ffda1f000000000000000000000000000000000000000000000000000000000000005c000000000000000000000000000000000000000000000000000000000000000100000000000000000000000000000000000000000000000000000000000000000000000000000000000000000000000000000000000000000000000000000002000000000000000000000000000000000000000000000000000000000000001d000000000000000000000000000000000000000000000000000000000000000e",
        "nonce": "0x146",
        "chainId": "0x8157"
      },
      "additionalContracts": [],
      "isFixedGasLimit": false
    },
    {
      "hash": null,
      "transactionType": "CALL",
      "contractName": null,
      "contractAddress": "0x0dfb5062def114fd7261e4385d8afcf15cf89e9e",
      "function": "setTokenTraits(uint256,uint256[5])",
      "arguments": [
        "93",
        "[0, 3, 21, 8, 17]"
      ],
      "transaction": {
        "from": "0xca067e20db2cdef80d1c7130e5b71c42c0305529",
        "to": "0x0dfb5062def114fd7261e4385d8afcf15cf89e9e",
        "gas": "0x29e79",
        "value": "0x0",
        "input": "0xa1ffda1f000000000000000000000000000000000000000000000000000000000000005d00000000000000000000000000000000000000000000000000000000000000000000000000000000000000000000000000000000000000000000000000000003000000000000000000000000000000000000000000000000000000000000001500000000000000000000000000000000000000000000000000000000000000080000000000000000000000000000000000000000000000000000000000000011",
        "nonce": "0x147",
        "chainId": "0x8157"
      },
      "additionalContracts": [],
      "isFixedGasLimit": false
    },
    {
      "hash": null,
      "transactionType": "CALL",
      "contractName": null,
      "contractAddress": "0x0dfb5062def114fd7261e4385d8afcf15cf89e9e",
      "function": "setTokenTraits(uint256,uint256[5])",
      "arguments": [
        "94",
        "[1, 3, 8, 18, 20]"
      ],
      "transaction": {
        "from": "0xca067e20db2cdef80d1c7130e5b71c42c0305529",
        "to": "0x0dfb5062def114fd7261e4385d8afcf15cf89e9e",
        "gas": "0x3103a",
        "value": "0x0",
        "input": "0xa1ffda1f000000000000000000000000000000000000000000000000000000000000005e00000000000000000000000000000000000000000000000000000000000000010000000000000000000000000000000000000000000000000000000000000003000000000000000000000000000000000000000000000000000000000000000800000000000000000000000000000000000000000000000000000000000000120000000000000000000000000000000000000000000000000000000000000014",
        "nonce": "0x148",
        "chainId": "0x8157"
      },
      "additionalContracts": [],
      "isFixedGasLimit": false
    },
    {
      "hash": null,
      "transactionType": "CALL",
      "contractName": null,
      "contractAddress": "0x0dfb5062def114fd7261e4385d8afcf15cf89e9e",
      "function": "setTokenTraits(uint256,uint256[5])",
      "arguments": [
        "95",
        "[3, 2, 21, 7, 10]"
      ],
      "transaction": {
        "from": "0xca067e20db2cdef80d1c7130e5b71c42c0305529",
        "to": "0x0dfb5062def114fd7261e4385d8afcf15cf89e9e",
        "gas": "0x3103a",
        "value": "0x0",
        "input": "0xa1ffda1f000000000000000000000000000000000000000000000000000000000000005f0000000000000000000000000000000000000000000000000000000000000003000000000000000000000000000000000000000000000000000000000000000200000000000000000000000000000000000000000000000000000000000000150000000000000000000000000000000000000000000000000000000000000007000000000000000000000000000000000000000000000000000000000000000a",
        "nonce": "0x149",
        "chainId": "0x8157"
      },
      "additionalContracts": [],
      "isFixedGasLimit": false
    },
    {
      "hash": null,
      "transactionType": "CALL",
      "contractName": null,
      "contractAddress": "0x0dfb5062def114fd7261e4385d8afcf15cf89e9e",
      "function": "setTokenTraits(uint256,uint256[5])",
      "arguments": [
        "96",
        "[0, 1, 35, 6, 30]"
      ],
      "transaction": {
        "from": "0xca067e20db2cdef80d1c7130e5b71c42c0305529",
        "to": "0x0dfb5062def114fd7261e4385d8afcf15cf89e9e",
        "gas": "0x29e79",
        "value": "0x0",
        "input": "0xa1ffda1f00000000000000000000000000000000000000000000000000000000000000600000000000000000000000000000000000000000000000000000000000000000000000000000000000000000000000000000000000000000000000000000000100000000000000000000000000000000000000000000000000000000000000230000000000000000000000000000000000000000000000000000000000000006000000000000000000000000000000000000000000000000000000000000001e",
        "nonce": "0x14a",
        "chainId": "0x8157"
      },
      "additionalContracts": [],
      "isFixedGasLimit": false
    },
    {
      "hash": null,
      "transactionType": "CALL",
      "contractName": null,
      "contractAddress": "0x0dfb5062def114fd7261e4385d8afcf15cf89e9e",
      "function": "setTokenTraits(uint256,uint256[5])",
      "arguments": [
        "97",
        "[1, 1, 33, 18, 2]"
      ],
      "transaction": {
        "from": "0xca067e20db2cdef80d1c7130e5b71c42c0305529",
        "to": "0x0dfb5062def114fd7261e4385d8afcf15cf89e9e",
        "gas": "0x3103a",
        "value": "0x0",
        "input": "0xa1ffda1f000000000000000000000000000000000000000000000000000000000000006100000000000000000000000000000000000000000000000000000000000000010000000000000000000000000000000000000000000000000000000000000001000000000000000000000000000000000000000000000000000000000000002100000000000000000000000000000000000000000000000000000000000000120000000000000000000000000000000000000000000000000000000000000002",
        "nonce": "0x14b",
        "chainId": "0x8157"
      },
      "additionalContracts": [],
      "isFixedGasLimit": false
    },
    {
      "hash": null,
      "transactionType": "CALL",
      "contractName": null,
      "contractAddress": "0x0dfb5062def114fd7261e4385d8afcf15cf89e9e",
      "function": "setTokenTraits(uint256,uint256[5])",
      "arguments": [
        "98",
        "[1, 1, 14, 19, 6]"
      ],
      "transaction": {
        "from": "0xca067e20db2cdef80d1c7130e5b71c42c0305529",
        "to": "0x0dfb5062def114fd7261e4385d8afcf15cf89e9e",
        "gas": "0x3103a",
        "value": "0x0",
        "input": "0xa1ffda1f000000000000000000000000000000000000000000000000000000000000006200000000000000000000000000000000000000000000000000000000000000010000000000000000000000000000000000000000000000000000000000000001000000000000000000000000000000000000000000000000000000000000000e00000000000000000000000000000000000000000000000000000000000000130000000000000000000000000000000000000000000000000000000000000006",
        "nonce": "0x14c",
        "chainId": "0x8157"
      },
      "additionalContracts": [],
      "isFixedGasLimit": false
    },
    {
      "hash": null,
      "transactionType": "CALL",
      "contractName": null,
      "contractAddress": "0x0dfb5062def114fd7261e4385d8afcf15cf89e9e",
      "function": "setTokenTraits(uint256,uint256[5])",
      "arguments": [
        "99",
        "[0, 0, 0, 20, 9]"
      ],
      "transaction": {
        "from": "0xca067e20db2cdef80d1c7130e5b71c42c0305529",
        "to": "0x0dfb5062def114fd7261e4385d8afcf15cf89e9e",
        "gas": "0x1baf7",
        "value": "0x0",
        "input": "0xa1ffda1f000000000000000000000000000000000000000000000000000000000000006300000000000000000000000000000000000000000000000000000000000000000000000000000000000000000000000000000000000000000000000000000000000000000000000000000000000000000000000000000000000000000000000000000000000000000000000000000000000000000000000000000000000000140000000000000000000000000000000000000000000000000000000000000009",
        "nonce": "0x14d",
        "chainId": "0x8157"
      },
      "additionalContracts": [],
      "isFixedGasLimit": false
    },
    {
      "hash": null,
      "transactionType": "CALL",
      "contractName": null,
      "contractAddress": "0x0dfb5062def114fd7261e4385d8afcf15cf89e9e",
      "function": "setTokenTraits(uint256,uint256[5])",
      "arguments": [
        "100",
        "[1, 0, 16, 19, 6]"
      ],
      "transaction": {
        "from": "0xca067e20db2cdef80d1c7130e5b71c42c0305529",
        "to": "0x0dfb5062def114fd7261e4385d8afcf15cf89e9e",
        "gas": "0x29e79",
        "value": "0x0",
        "input": "0xa1ffda1f000000000000000000000000000000000000000000000000000000000000006400000000000000000000000000000000000000000000000000000000000000010000000000000000000000000000000000000000000000000000000000000000000000000000000000000000000000000000000000000000000000000000001000000000000000000000000000000000000000000000000000000000000000130000000000000000000000000000000000000000000000000000000000000006",
        "nonce": "0x14e",
        "chainId": "0x8157"
      },
      "additionalContracts": [],
      "isFixedGasLimit": false
    }
  ],
  "receipts": [],
  "libraries": [],
  "pending": [
    "0x60fd481a88afaf904bf6fcbea34170fa9be42775aadd9ec3cf059d1dce05d5c2",
    "0x8fe256ec99f34b7996480aa3fcaec148ab9bbf915e26684936589a33c061d2cd",
    "0x8b05acf661ae4576e385ec2d1c61cb1960a0d23c43d49a8ab4c47b73c7be0bbb",
    "0xc4258ba9c0643088e8b1a521ea2fc4c7401716417d5d786e5bad357612f94d48",
    "0xb984969f1fdc048534b980d3193bc2ebe97893286f8e346b5aba4101f92d08b6",
    "0x2b65a230b03928717f936b598ffdb53172376cb68ecb60e006fe4abd1eb2be8b",
    "0x4b455ba6a0f133029c6c02de4956af6157e20b7a32fe40c7f0cecd4c479dcfe9",
    "0xe2dff7fc6def6da6f5e8df86da1b9ed351f4d78eaf949da5ba9eb523f815ce2c",
    "0xcac55f98ad70f781537720d30bc4c255e98692faa9e13bcffc8ffe438300395a",
    "0x53add4f1c8c546c8749109cdd217bc618a529ddf974baa99852590ac583f83b1",
    "0xfdc76f4027070cdc8701e0bc7af681d97af43b4084b61b3b134d1c59b28b59b1",
    "0xde5d0efd4b5fd83a5c477efd7badf29f06954f377535f147ebc9b20b45b8619f",
    "0x24efd67a55ba4b6b08bfdd090605e5406954d7054d0584275493b1f8372806d8",
    "0x75499b6c18f905d09a2c5f8e89710582dd93601310cd765128f3a4d3790ecabb",
    "0x35f4c7ec065ce93eb07de712e6909d5ae9954b38366ae04673ddc16494dc57aa",
    "0xe08157656fb8d2fb1a57ac8054507ec90c2d97df98e07f1f8f1ddc490e0d67f0",
    "0xe68ee666504224c770aa6118bdc647213a1275d918f8b596c6248617002f489d",
    "0x5d6a7dedfda6f7cbfdfeb49b9ac05fafcd29711c0f5c1b41263df8057597b9c5",
    "0x50bab13e96c2a9daeef334661b887eae8b9f9278ae41edc8b1730001ee0f8d8b",
    "0xda045b34bc8002292239e5b07b6e6cbf1c4b596f4e16253f250bc119468dc731",
    "0xa8fbb89213a7afbaf4dc464fc0abfefdcdfc998d1b87ba8b2fbad9a372e2ada4",
    "0x7c03ec23177aa147f56d2154e965f83623050f895fb1b154dd4ac49e75cc7b2a",
    "0x894bacf418723910bc2634bbfdde9f4a9981929008823b0463b9606570e90437",
    "0xf2fe1032bda64bc36d90e71272e08bbc1ee6fb22eba56429db68a28d652987bd",
    "0x425ab16427216a59fe6343a93fd48f923eac022ddc25e9597237cdbfc3e36c9c"
  ],
  "returns": {},
  "timestamp": 1757912111,
  "chain": 33111,
  "commit": "5dd3b71"
}