{
  "transactions": [
    {
      "hash": "0xc229fd16b7cd8dde2ef6eef42a48c0b21fefdbe3c558d89eb89dd81e16c090cc",
      "transactionType": "CALL",
      "contractName": null,
      "contractAddress": "0x0dfb5062def114fd7261e4385d8afcf15cf89e9e",
      "function": "setTokenTraits(uint256,uint256[5])",
      "arguments": [
        "11",
        "[3, 2, 26, 13, 19]"
      ],
      "transaction": {
        "from": "0xca067e20db2cdef80d1c7130e5b71c42c0305529",
        "to": "0x0dfb5062def114fd7261e4385d8afcf15cf89e9e",
        "gas": "0xcbce",
        "value": "0x0",
        "input": "0xa1ffda1f000000000000000000000000000000000000000000000000000000000000000b00000000000000000000000000000000000000000000000000000000000000030000000000000000000000000000000000000000000000000000000000000002000000000000000000000000000000000000000000000000000000000000001a000000000000000000000000000000000000000000000000000000000000000d0000000000000000000000000000000000000000000000000000000000000013",
        "nonce": "0x106",
        "chainId": "0x8157"
      },
      "additionalContracts": [],
      "isFixedGasLimit": false
    },
    {
      "hash": "0x607bd7bc0ab96e1a341b9e7ce90b4c0a34c6ea0164df04f72083039967db22de",
      "transactionType": "CALL",
      "contractName": null,
      "contractAddress": "0x0dfb5062def114fd7261e4385d8afcf15cf89e9e",
      "function": "setTokenTraits(uint256,uint256[5])",
      "arguments": [
        "12",
        "[2, 3, 38, 15, 14]"
      ],
      "transaction": {
        "from": "0xca067e20db2cdef80d1c7130e5b71c42c0305529",
        "to": "0x0dfb5062def114fd7261e4385d8afcf15cf89e9e",
        "gas": "0xcbce",
        "value": "0x0",
        "input": "0xa1ffda1f000000000000000000000000000000000000000000000000000000000000000c000000000000000000000000000000000000000000000000000000000000000200000000000000000000000000000000000000000000000000000000000000030000000000000000000000000000000000000000000000000000000000000026000000000000000000000000000000000000000000000000000000000000000f000000000000000000000000000000000000000000000000000000000000000e",
        "nonce": "0x107",
        "chainId": "0x8157"
      },
      "additionalContracts": [],
      "isFixedGasLimit": false
    },
    {
      "hash": "0x6ae01016605c3333df8b7bc98e5e60f71a63b48ad2fa72f5f0ff14d008fcd901",
      "transactionType": "CALL",
      "contractName": null,
      "contractAddress": "0x0dfb5062def114fd7261e4385d8afcf15cf89e9e",
      "function": "setTokenTraits(uint256,uint256[5])",
      "arguments": [
        "13",
        "[1, 2, 24, 13, 26]"
      ],
      "transaction": {
        "from": "0xca067e20db2cdef80d1c7130e5b71c42c0305529",
        "to": "0x0dfb5062def114fd7261e4385d8afcf15cf89e9e",
        "gas": "0xcbce",
        "value": "0x0",
        "input": "0xa1ffda1f000000000000000000000000000000000000000000000000000000000000000d000000000000000000000000000000000000000000000000000000000000000100000000000000000000000000000000000000000000000000000000000000020000000000000000000000000000000000000000000000000000000000000018000000000000000000000000000000000000000000000000000000000000000d000000000000000000000000000000000000000000000000000000000000001a",
        "nonce": "0x108",
        "chainId": "0x8157"
      },
      "additionalContracts": [],
      "isFixedGasLimit": false
    },
    {
      "hash": "0xc4c0c2abe5cca2c8274169c0504a0397428fb0ac5993318d73b1100b8c6d4565",
      "transactionType": "CALL",
      "contractName": null,
      "contractAddress": "0x0dfb5062def114fd7261e4385d8afcf15cf89e9e",
      "function": "setTokenTraits(uint256,uint256[5])",
      "arguments": [
        "14",
        "[0, 3, 16, 17, 34]"
      ],
      "transaction": {
        "from": "0xca067e20db2cdef80d1c7130e5b71c42c0305529",
        "to": "0x0dfb5062def114fd7261e4385d8afcf15cf89e9e",
        "gas": "0xd7ba",
        "value": "0x0",
        "input": "0xa1ffda1f000000000000000000000000000000000000000000000000000000000000000e00000000000000000000000000000000000000000000000000000000000000000000000000000000000000000000000000000000000000000000000000000003000000000000000000000000000000000000000000000000000000000000001000000000000000000000000000000000000000000000000000000000000000110000000000000000000000000000000000000000000000000000000000000022",
        "nonce": "0x109",
        "chainId": "0x8157"
      },
      "additionalContracts": [],
      "isFixedGasLimit": false
    },
    {
      "hash": "0xef3f2e592d19b254d70c77104c11ee51af743ffa3b424c8f9556648037d083a3",
      "transactionType": "CALL",
      "contractName": null,
      "contractAddress": "0x0dfb5062def114fd7261e4385d8afcf15cf89e9e",
      "function": "setTokenTraits(uint256,uint256[5])",
      "arguments": [
        "15",
        "[1, 2, 18, 29, 10]"
      ],
      "transaction": {
        "from": "0xca067e20db2cdef80d1c7130e5b71c42c0305529",
        "to": "0x0dfb5062def114fd7261e4385d8afcf15cf89e9e",
        "gas": "0xcbce",
        "value": "0x0",
        "input": "0xa1ffda1f000000000000000000000000000000000000000000000000000000000000000f000000000000000000000000000000000000000000000000000000000000000100000000000000000000000000000000000000000000000000000000000000020000000000000000000000000000000000000000000000000000000000000012000000000000000000000000000000000000000000000000000000000000001d000000000000000000000000000000000000000000000000000000000000000a",
        "nonce": "0x10a",
        "chainId": "0x8157"
      },
      "additionalContracts": [],
      "isFixedGasLimit": false
    },
    {
      "hash": "0x30139429b272fe13c01c80c61fa5eec9dbc7df7fb7a81f112bad5a1f6fe88880",
      "transactionType": "CALL",
      "contractName": null,
      "contractAddress": "0x0dfb5062def114fd7261e4385d8afcf15cf89e9e",
      "function": "setTokenTraits(uint256,uint256[5])",
      "arguments": [
        "16",
        "[0, 2, 33, 10, 14]"
      ],
      "transaction": {
        "from": "0xca067e20db2cdef80d1c7130e5b71c42c0305529",
        "to": "0x0dfb5062def114fd7261e4385d8afcf15cf89e9e",
        "gas": "0xd7ba",
        "value": "0x0",
        "input": "0xa1ffda1f0000000000000000000000000000000000000000000000000000000000000010000000000000000000000000000000000000000000000000000000000000000000000000000000000000000000000000000000000000000000000000000000020000000000000000000000000000000000000000000000000000000000000021000000000000000000000000000000000000000000000000000000000000000a000000000000000000000000000000000000000000000000000000000000000e",
        "nonce": "0x10b",
        "chainId": "0x8157"
      },
      "additionalContracts": [],
      "isFixedGasLimit": false
    },
    {
      "hash": "0xe1c8b3eb56082f071fdca8285977b922d4fda0eaa6bfdb16ccd622fdb37ce877",
      "transactionType": "CALL",
      "contractName": null,
      "contractAddress": "0x0dfb5062def114fd7261e4385d8afcf15cf89e9e",
      "function": "setTokenTraits(uint256,uint256[5])",
      "arguments": [
        "17",
        "[3, 2, 19, 22, 26]"
      ],
      "transaction": {
        "from": "0xca067e20db2cdef80d1c7130e5b71c42c0305529",
        "to": "0x0dfb5062def114fd7261e4385d8afcf15cf89e9e",
        "gas": "0xcbce",
        "value": "0x0",
        "input": "0xa1ffda1f00000000000000000000000000000000000000000000000000000000000000110000000000000000000000000000000000000000000000000000000000000003000000000000000000000000000000000000000000000000000000000000000200000000000000000000000000000000000000000000000000000000000000130000000000000000000000000000000000000000000000000000000000000016000000000000000000000000000000000000000000000000000000000000001a",
        "nonce": "0x10c",
        "chainId": "0x8157"
      },
      "additionalContracts": [],
      "isFixedGasLimit": false
    },
    {
      "hash": "0x13fe23dba9d10e57a3093b1d3c790f63fe8e562a8212ab4045f07ee9d2c81028",
      "transactionType": "CALL",
      "contractName": null,
      "contractAddress": "0x0dfb5062def114fd7261e4385d8afcf15cf89e9e",
      "function": "setTokenTraits(uint256,uint256[5])",
      "arguments": [
        "18",
        "[0, 1, 3, 13, 7]"
      ],
      "transaction": {
        "from": "0xca067e20db2cdef80d1c7130e5b71c42c0305529",
        "to": "0x0dfb5062def114fd7261e4385d8afcf15cf89e9e",
        "gas": "0xd7ba",
        "value": "0x0",
        "input": "0xa1ffda1f0000000000000000000000000000000000000000000000000000000000000012000000000000000000000000000000000000000000000000000000000000000000000000000000000000000000000000000000000000000000000000000000010000000000000000000000000000000000000000000000000000000000000003000000000000000000000000000000000000000000000000000000000000000d0000000000000000000000000000000000000000000000000000000000000007",
        "nonce": "0x10d",
        "chainId": "0x8157"
      },
      "additionalContracts": [],
      "isFixedGasLimit": false
    },
    {
      "hash": "0xaf82747b98d73f55ccdfb6ed8d552cd82361ab87e20674c7e393e109f66ffef0",
      "transactionType": "CALL",
      "contractName": null,
      "contractAddress": "0x0dfb5062def114fd7261e4385d8afcf15cf89e9e",
      "function": "setTokenTraits(uint256,uint256[5])",
      "arguments": [
        "19",
        "[1, 2, 19, 35, 33]"
      ],
      "transaction": {
        "from": "0xca067e20db2cdef80d1c7130e5b71c42c0305529",
        "to": "0x0dfb5062def114fd7261e4385d8afcf15cf89e9e",
        "gas": "0xcbce",
        "value": "0x0",
        "input": "0xa1ffda1f000000000000000000000000000000000000000000000000000000000000001300000000000000000000000000000000000000000000000000000000000000010000000000000000000000000000000000000000000000000000000000000002000000000000000000000000000000000000000000000000000000000000001300000000000000000000000000000000000000000000000000000000000000230000000000000000000000000000000000000000000000000000000000000021",
        "nonce": "0x10e",
        "chainId": "0x8157"
      },
      "additionalContracts": [],
      "isFixedGasLimit": false
    },
    {
      "hash": "0x7970a0daa1ac002ea36ca1843557b982740fbf04191af950a1997b35f6b0b22f",
      "transactionType": "CALL",
      "contractName": null,
      "contractAddress": "0x0dfb5062def114fd7261e4385d8afcf15cf89e9e",
      "function": "setTokenTraits(uint256,uint256[5])",
      "arguments": [
        "20",
        "[0, 3, 17, 0, 20]"
      ],
      "transaction": {
        "from": "0xca067e20db2cdef80d1c7130e5b71c42c0305529",
        "to": "0x0dfb5062def114fd7261e4385d8afcf15cf89e9e",
        "gas": "0xcbad",
        "value": "0x0",
        "input": "0xa1ffda1f000000000000000000000000000000000000000000000000000000000000001400000000000000000000000000000000000000000000000000000000000000000000000000000000000000000000000000000000000000000000000000000003000000000000000000000000000000000000000000000000000000000000001100000000000000000000000000000000000000000000000000000000000000000000000000000000000000000000000000000000000000000000000000000014",
        "nonce": "0x10f",
        "chainId": "0x8157"
      },
      "additionalContracts": [],
      "isFixedGasLimit": false
    }
  ],
  "receipts": [
    {
      "status": "0x1",
      "cumulativeGasUsed": "0x938e",
      "logs": [],
      "logsBloom": "0x00000000000000000000000000000000000000000000000000000000000000000000000000000000000000000000000000000000000000000000000000000000000000000000000000000000000000000000000000000000000000000000000000000000000000000000000000000000000000000000000000000000000000000000000000000000000000000000000000000000000000000000000000000000000000000000000000000000000000000000000000000000000000000000000000000000000000000000000000000000000000000000000000000000000000000000000000000000000000000000000000000000000000000000000000000000",
      "type": "0x2",
      "transactionHash": "0xc229fd16b7cd8dde2ef6eef42a48c0b21fefdbe3c558d89eb89dd81e16c090cc",
      "transactionIndex": "0x1",
      "blockHash": "0x4100cdbe75de383e1505e526b422157a10f813c80959cdd5db72e2877e89ce9d",
      "blockNumber": "0x1abd5bd",
      "gasUsed": "0x938e",
      "effectiveGasPrice": "0x989680",
      "from": "0xca067e20db2cdef80d1c7130e5b71c42c0305529",
      "to": "0x0dfb5062def114fd7261e4385d8afcf15cf89e9e",
      "contractAddress": null,
      "gasUsedForL1": "0x0",
      "l1BlockNumber": "0x8c7ac2"
    },
    {
      "status": "0x1",
      "cumulativeGasUsed": "0x1271c",
      "logs": [],
      "logsBloom": "0x00000000000000000000000000000000000000000000000000000000000000000000000000000000000000000000000000000000000000000000000000000000000000000000000000000000000000000000000000000000000000000000000000000000000000000000000000000000000000000000000000000000000000000000000000000000000000000000000000000000000000000000000000000000000000000000000000000000000000000000000000000000000000000000000000000000000000000000000000000000000000000000000000000000000000000000000000000000000000000000000000000000000000000000000000000000",
      "type": "0x2",
      "transactionHash": "0x607bd7bc0ab96e1a341b9e7ce90b4c0a34c6ea0164df04f72083039967db22de",
      "transactionIndex": "0x2",
      "blockHash": "0x4100cdbe75de383e1505e526b422157a10f813c80959cdd5db72e2877e89ce9d",
      "blockNumber": "0x1abd5bd",
      "gasUsed": "0x938e",
      "effectiveGasPrice": "0x989680",
      "from": "0xca067e20db2cdef80d1c7130e5b71c42c0305529",
      "to": "0x0dfb5062def114fd7261e4385d8afcf15cf89e9e",
      "contractAddress": null,
      "gasUsedForL1": "0x0",
      "l1BlockNumber": "0x8c7ac2"
    },
    {
      "status": "0x1",
      "cumulativeGasUsed": "0x1baaa",
      "logs": [],
      "logsBloom": "0x00000000000000000000000000000000000000000000000000000000000000000000000000000000000000000000000000000000000000000000000000000000000000000000000000000000000000000000000000000000000000000000000000000000000000000000000000000000000000000000000000000000000000000000000000000000000000000000000000000000000000000000000000000000000000000000000000000000000000000000000000000000000000000000000000000000000000000000000000000000000000000000000000000000000000000000000000000000000000000000000000000000000000000000000000000000",
      "type": "0x2",
      "transactionHash": "0x6ae01016605c3333df8b7bc98e5e60f71a63b48ad2fa72f5f0ff14d008fcd901",
      "transactionIndex": "0x3",
      "blockHash": "0x4100cdbe75de383e1505e526b422157a10f813c80959cdd5db72e2877e89ce9d",
      "blockNumber": "0x1abd5bd",
      "gasUsed": "0x938e",
      "effectiveGasPrice": "0x989680",
      "from": "0xca067e20db2cdef80d1c7130e5b71c42c0305529",
      "to": "0x0dfb5062def114fd7261e4385d8afcf15cf89e9e",
      "contractAddress": null,
      "gasUsedForL1": "0x0",
      "l1BlockNumber": "0x8c7ac2"
    },
    {
      "status": "0x1",
      "cumulativeGasUsed": "0x9382",
      "logs": [],
      "logsBloom": "0x00000000000000000000000000000000000000000000000000000000000000000000000000000000000000000000000000000000000000000000000000000000000000000000000000000000000000000000000000000000000000000000000000000000000000000000000000000000000000000000000000000000000000000000000000000000000000000000000000000000000000000000000000000000000000000000000000000000000000000000000000000000000000000000000000000000000000000000000000000000000000000000000000000000000000000000000000000000000000000000000000000000000000000000000000000000",
      "type": "0x2",
      "transactionHash": "0xc4c0c2abe5cca2c8274169c0504a0397428fb0ac5993318d73b1100b8c6d4565",
      "transactionIndex": "0x1",
      "blockHash": "0x19264f3df7c03f3dfbe9316868f7b8021c89a5624f1e8e370d21479f339520be",
      "blockNumber": "0x1abd5be",
      "gasUsed": "0x9382",
      "effectiveGasPrice": "0x989680",
      "from": "0xca067e20db2cdef80d1c7130e5b71c42c0305529",
      "to": "0x0dfb5062def114fd7261e4385d8afcf15cf89e9e",
      "contractAddress": null,
      "gasUsedForL1": "0x0",
      "l1BlockNumber": "0x8c7ac2"
    },
    {
      "status": "0x1",
      "cumulativeGasUsed": "0x12710",
      "logs": [],
      "logsBloom": "0x00000000000000000000000000000000000000000000000000000000000000000000000000000000000000000000000000000000000000000000000000000000000000000000000000000000000000000000000000000000000000000000000000000000000000000000000000000000000000000000000000000000000000000000000000000000000000000000000000000000000000000000000000000000000000000000000000000000000000000000000000000000000000000000000000000000000000000000000000000000000000000000000000000000000000000000000000000000000000000000000000000000000000000000000000000000",
      "type": "0x2",
      "transactionHash": "0xef3f2e592d19b254d70c77104c11ee51af743ffa3b424c8f9556648037d083a3",
      "transactionIndex": "0x2",
      "blockHash": "0x19264f3df7c03f3dfbe9316868f7b8021c89a5624f1e8e370d21479f339520be",
      "blockNumber": "0x1abd5be",
      "gasUsed": "0x938e",
      "effectiveGasPrice": "0x989680",
      "from": "0xca067e20db2cdef80d1c7130e5b71c42c0305529",
      "to": "0x0dfb5062def114fd7261e4385d8afcf15cf89e9e",
      "contractAddress": null,
      "gasUsedForL1": "0x0",
      "l1BlockNumber": "0x8c7ac2"
    },
    {
      "status": "0x1",
      "cumulativeGasUsed": "0x1ba92",
      "logs": [],
      "logsBloom": "0x00000000000000000000000000000000000000000000000000000000000000000000000000000000000000000000000000000000000000000000000000000000000000000000000000000000000000000000000000000000000000000000000000000000000000000000000000000000000000000000000000000000000000000000000000000000000000000000000000000000000000000000000000000000000000000000000000000000000000000000000000000000000000000000000000000000000000000000000000000000000000000000000000000000000000000000000000000000000000000000000000000000000000000000000000000000",
      "type": "0x2",
      "transactionHash": "0x30139429b272fe13c01c80c61fa5eec9dbc7df7fb7a81f112bad5a1f6fe88880",
      "transactionIndex": "0x3",
      "blockHash": "0x19264f3df7c03f3dfbe9316868f7b8021c89a5624f1e8e370d21479f339520be",
      "blockNumber": "0x1abd5be",
      "gasUsed": "0x9382",
      "effectiveGasPrice": "0x989680",
      "from": "0xca067e20db2cdef80d1c7130e5b71c42c0305529",
      "to": "0x0dfb5062def114fd7261e4385d8afcf15cf89e9e",
      "contractAddress": null,
      "gasUsedForL1": "0x0",
      "l1BlockNumber": "0x8c7ac2"
    },
    {
      "status": "0x1",
      "cumulativeGasUsed": "0x24e20",
      "logs": [],
      "logsBloom": "0x00000000000000000000000000000000000000000000000000000000000000000000000000000000000000000000000000000000000000000000000000000000000000000000000000000000000000000000000000000000000000000000000000000000000000000000000000000000000000000000000000000000000000000000000000000000000000000000000000000000000000000000000000000000000000000000000000000000000000000000000000000000000000000000000000000000000000000000000000000000000000000000000000000000000000000000000000000000000000000000000000000000000000000000000000000000",
      "type": "0x2",
      "transactionHash": "0xe1c8b3eb56082f071fdca8285977b922d4fda0eaa6bfdb16ccd622fdb37ce877",
      "transactionIndex": "0x4",
      "blockHash": "0x19264f3df7c03f3dfbe9316868f7b8021c89a5624f1e8e370d21479f339520be",
      "blockNumber": "0x1abd5be",
      "gasUsed": "0x938e",
      "effectiveGasPrice": "0x989680",
      "from": "0xca067e20db2cdef80d1c7130e5b71c42c0305529",
      "to": "0x0dfb5062def114fd7261e4385d8afcf15cf89e9e",
      "contractAddress": null,
      "gasUsedForL1": "0x0",
      "l1BlockNumber": "0x8c7ac2"
    },
    {
      "status": "0x1",
      "cumulativeGasUsed": "0x9382",
      "logs": [],
      "logsBloom": "0x00000000000000000000000000000000000000000000000000000000000000000000000000000000000000000000000000000000000000000000000000000000000000000000000000000000000000000000000000000000000000000000000000000000000000000000000000000000000000000000000000000000000000000000000000000000000000000000000000000000000000000000000000000000000000000000000000000000000000000000000000000000000000000000000000000000000000000000000000000000000000000000000000000000000000000000000000000000000000000000000000000000000000000000000000000000",
      "type": "0x2",
      "transactionHash": "0x13fe23dba9d10e57a3093b1d3c790f63fe8e562a8212ab4045f07ee9d2c81028",
      "transactionIndex": "0x1",
      "blockHash": "0xb500acce43fda887279b6ecb1f4ef7bbf8945ed8b43e61d7904b6d5eb603d9ad",
      "blockNumber": "0x1abd5bf",
      "gasUsed": "0x9382",
      "effectiveGasPrice": "0x989680",
      "from": "0xca067e20db2cdef80d1c7130e5b71c42c0305529",
      "to": "0x0dfb5062def114fd7261e4385d8afcf15cf89e9e",
      "contractAddress": null,
      "gasUsedForL1": "0x0",
      "l1BlockNumber": "0x8c7ac2"
    },
    {
      "status": "0x1",
      "cumulativeGasUsed": "0x12710",
      "logs": [],
      "logsBloom": "0x00000000000000000000000000000000000000000000000000000000000000000000000000000000000000000000000000000000000000000000000000000000000000000000000000000000000000000000000000000000000000000000000000000000000000000000000000000000000000000000000000000000000000000000000000000000000000000000000000000000000000000000000000000000000000000000000000000000000000000000000000000000000000000000000000000000000000000000000000000000000000000000000000000000000000000000000000000000000000000000000000000000000000000000000000000000",
      "type": "0x2",
      "transactionHash": "0xaf82747b98d73f55ccdfb6ed8d552cd82361ab87e20674c7e393e109f66ffef0",
      "transactionIndex": "0x2",
      "blockHash": "0xb500acce43fda887279b6ecb1f4ef7bbf8945ed8b43e61d7904b6d5eb603d9ad",
      "blockNumber": "0x1abd5bf",
      "gasUsed": "0x938e",
      "effectiveGasPrice": "0x989680",
      "from": "0xca067e20db2cdef80d1c7130e5b71c42c0305529",
      "to": "0x0dfb5062def114fd7261e4385d8afcf15cf89e9e",
      "contractAddress": null,
      "gasUsedForL1": "0x0",
      "l1BlockNumber": "0x8c7ac2"
    },
    {
      "status": "0x1",
      "cumulativeGasUsed": "0x1ba86",
      "logs": [],
      "logsBloom": "0x00000000000000000000000000000000000000000000000000000000000000000000000000000000000000000000000000000000000000000000000000000000000000000000000000000000000000000000000000000000000000000000000000000000000000000000000000000000000000000000000000000000000000000000000000000000000000000000000000000000000000000000000000000000000000000000000000000000000000000000000000000000000000000000000000000000000000000000000000000000000000000000000000000000000000000000000000000000000000000000000000000000000000000000000000000000",
      "type": "0x2",
      "transactionHash": "0x7970a0daa1ac002ea36ca1843557b982740fbf04191af950a1997b35f6b0b22f",
      "transactionIndex": "0x3",
      "blockHash": "0xb500acce43fda887279b6ecb1f4ef7bbf8945ed8b43e61d7904b6d5eb603d9ad",
      "blockNumber": "0x1abd5bf",
      "gasUsed": "0x9376",
      "effectiveGasPrice": "0x989680",
      "from": "0xca067e20db2cdef80d1c7130e5b71c42c0305529",
      "to": "0x0dfb5062def114fd7261e4385d8afcf15cf89e9e",
      "contractAddress": null,
      "gasUsedForL1": "0x0",
      "l1BlockNumber": "0x8c7ac2"
    }
  ],
  "libraries": [],
  "pending": [],
  "returns": {},
  "timestamp": 1757912582,
  "chain": 33111,
  "commit": "5dd3b71"
}